:020000040800F2
:10000000A02A00209D010008412B00085D21000866
:10001000C52A000889060008993800080000000079
:1000200000000000000000000000000005010008C2
:10003000C106000800000000490100085D33000807
:10004000B7010008B7010008B7010008B7010008B0
:10005000B7010008B7010008B7010008B7010008A0
:10006000B7010008B7010008B7010008B701000890
:10007000B7010008B7010008B7010008B701000880
:10008000B7010008B7010008B7010008B701000870
:10009000B7010008B7010008B7010008B701000860
:1000A000B7010008B7010008B7010008B701000850
:1000B0000534000811340008B7010008B701000832
:1000C000B7010008B7010008B7010008B701000830
:1000D000B7010008B7010008D937000855380008F3
:1000E000B7010008B7010008B7010008DFF810D019
:1000F00000F00EFA00480047FD3F0008AFF3008013
:10010000A02A0020224B19680868B0E8F00F80F39D
:100110000988BFF36F8F4FF0000080F311884EF015
:100120000D0E70470000000006480068006880F36C
:10013000088862B661B6BFF34F8FBFF36F8F00DFE1
:1001400000BF00BF08ED00E0EFF30980BFF36F8F41
:100150000F4B1A6820E9F00F106008B54FF05000FF
:1001600080F31188BFF34F8FBFF36F8F04F05AFFF6
:100170004FF0000080F31188BDE808401968086856
:10018000B0E8F00F80F30988BFF36F8F704700BFAE
:100190006C000020EFF305807047000006488047A0
:1001A00006480047FEE7FEE7FEE7FEE7FEE7FEE75C
:1001B000FEE7FEE7FEE7FEE701340008ED00000879
:1001C000202A04DB203A21FA02F00021704721FAAC
:1001D00002F3D040C2F12002914008431946704713
:1001E00040EA01039B0703D009E008C9121F08C0B9
:1001F000042AFAD203E011F8013B00F8013B521E39
:10020000F9D27047D2B201E000F8012B491EFBD2AF
:1002100070470022F6E710B513460A460446194611
:10022000FFF7F0FF204610BD30B505462A460B46C5
:1002300012F8010B13F8014B08B1A042F8D01CB121
:10024000002802D06D1CF1E7284630BDCAB2401E1E
:1002500010F8011F8A4202D00029F9D1002070470E
:10026000421C10F8011B0029FBD1801A704710B501
:10027000044600E0401C0378002BFBD100E0401C4A
:10028000521E04D311F8013B0370002BF7D100215B
:100290000170204610BD2DE9FE4F81EA030404F0F1
:1002A000004421F0004100944FF0000B23F0004384
:1002B00050EA01045ED052EA03045BD0C3F30A544F
:1002C000C1F30A552C44A4F2F3340194A0FB025468
:1002D000C1F3130141F48011C3F3130343F48013FA
:1002E00001FB024400FB034E840A970A44EA81544E
:1002F00047EA8357A4FB076802958D0A05FB07852B
:100300004FEA932C04FB0C542705029D4FEA065834
:1003100047EA1637B5EB08056EEB070C870E920E11
:1003200047EA811742EA8312A7FB0201B6EB0B01F1
:1003300064EB00042B0D43EA0C335E1844EB1C50B5
:10034000DA465146E7FB0201C5F313044FEA0B33CB
:1003500043EA14534FEA0432019C43EA0603A4F132
:100360000C040294009CCDE900B400F083F803B0C3
:10037000BDE8F08F00200146F9E770B521F0004399
:1003800003430CD0C1F30A550024D5EB040564EBFC
:100390000403D617AD1AB34102DB0020014670BD3D
:1003A000201841EB025170BD0EB540F2334102916D
:1003B0000021CDE900110A460B4600F05BF803B0BE
:1003C00000BDC1F30A5210B5C1F3130140F2FF336F
:1003D00041F480119A4201DA002010BD40F233430B
:1003E0009A42A2F2334203DC5242FFF7E9FE10BD0B
:1003F000904010BD2DE9F05F0546002092469B46D7
:1004000088460646814640241BE02846414647462A
:100410002246FFF7D5FE53465A46C01A914110D3E3
:1004200011461846224600F085F82D1A67EB0108A0
:100430004F4622460120002100F07CF817EB00090E
:100440004E41201EA4F10104DFDC484631462A4615
:100450004346BDE8F09F10B5141E73F1000408DA9E
:10046000401C41F1000192185B411A4301D120F078
:10047000010010BD2DE9F04D92469B4611B1B1FA35
:1004800081F202E0B0FA80F22032904600F052F899
:1004900004460F4640EA0A0041EA0B0153465A4619
:1004A000084313D0114653EA010019D0C8F14002A5
:1004B0005046FFF785FE05460E46504659464246D1
:1004C00000F038F8084305D0012004E02046394602
:1004D000BDE8F08D0020054346EAE0762C43374323
:1004E0000A986305E40AA0EB08000022FD0A44EA2A
:1004F00047540A3002D500200146E9E701051019EA
:100500006941DDE9084500196941BDE8F04DA2E700
:10051000064C074D06E0E06840F0010394E8070050
:1005200098471034AC42F6D3FFF7E4FD706700083B
:1005300090670008202A04DB203A00FA02F100202C
:1005400070479140C2F1200320FA03F31943904011
:100550007047000070B5044600688168C943C90748
:1005600017D1816821F00101816000F0EDFC0546A2
:100570000AE000BF00F0E8FC401B022804D9206814
:100580008068C043C00706D020688068C043C007A9
:10059000F0D0002070BDA06A40F01000A062E06AB8
:1005A00040F00100E062012070BD0000F8B50026B7
:1005B0000446009600688168C943C9072DD0816848
:1005C00041F001018160164816490068B0FBF1F066
:1005D00000E0401E00900028FBD100F0B5FC05466D
:1005E00016E000BF00F0B0FC401B022810D92068C4
:1005F0008068C043C0070BD0A06A40F01000A06222
:10060000E06A40F00100E06284F824600120F8BD57
:1006100020688068C043C007E4D10020F8BD000016
:100620006800002040420F000EB58DE80E006946BC
:1006300000F044F90EBD000010B501460723012269
:100640000748FFF7F1FF064800F012FB0A210448B3
:1006500000F070FA024800F0AFF980B210BD00005F
:100660009C08002010B502F0F5F906480168CA6838
:1006700042F02002CA600068C16841F01001C16008
:1006800010BD0000EC090020FEE7000010B50520B9
:1006900003F0A8FC0449886002F06AFCBDE8104041
:1006A00002A003F0FBB8000018000020B3C9B9A6EF
:1006B000C9CFB4ABB9E2D5D5CAFDBEDD0D0A000085
:1006C0007047000010B580210348FFF7A2FD0349E1
:1006D0000020488010BD000074010020120000209E
:1006E00010B5044600F0D8F858B90AA10B48FFF736
:1006F0009BFD30B13A21FFF7A9FD002800D0401C36
:1007000010BD052000F014FB2046641EA4B2E9D2FF
:1007100010BD00004950442C00000000740100206E
:1007200010B502F0B3F919480068C16841F0200122
:10073000C160FFF7C7FF4FF4FA7402E0204603F0F0
:10074000F3FC13A113A000F063F80028F6D102E037
:10075000204603F0E9FC0EA110A000F059F8002893
:10076000F6D102E0204603F0DFFC10A111A000F05A
:100770004FF80028F6D102E0204603F0D5FC16A180
:1007800017A000F045F80028F6D110BD340A00206B
:100790004F4B000041540D0A0000000041542B4310
:1007A000574D4F44453D310D0A000000474F54203E
:1007B0004950000041542B43574A41503D22486F55
:1007C0006E6F72313030222C2243632E3234363831
:1007D000353040220D0A0000434F4E4E4543540031
:1007E00041542B43495053544152543D2254435099
:1007F000222C226D717474732E6865636C6F75643E
:10080000732E636F6D222C313838330D0A000000CF
:1008100070B50D460646C824FFF722FD81B230466A
:1008200004F06EF90FE000BF00F036F840B9294639
:100830000748FFF7F9FC18B1FFF744FF002070BD2F
:100840000A2000F075FA641EE4B2EDD2012070BDFA
:100850007401002030B5B3B00C460546FFF732FFF7
:10086000224608A1684603F029F80AA16846FFF766
:10087000CFFF002803D12146284604F041F933B0C8
:1008800030BD000041542B43495053454E443D2553
:10089000640D0A003E0000000648418831B182889C
:1008A000914205D1002141800846704701207047E0
:1008B0008180FBE71200002072B6FEE7F8B5002445
:1008C000009490F824202546012A12D0012280F8B5
:1008D00024204A681F23072A0DD20668776B521E10
:1008E00002EB820293409F430B6893401F43776360
:1008F00019E00220F8BD06680D2A0AD2376BD21F14
:1009000002EB820293409F430B6893401F4337637F
:1009100009E0F76A0D3A02EB820293409F430B68AD
:1009200093401F43F7620A68072306680A2A0AD31E
:10093000F7680A3A02EB420293409F438B68934068
:100940001F43F76008E0376902EB420293409F4380
:100950008B6893401F4337610A68102A01D0112A1F
:1009600020D1124B02689A4217D193681B0219D406
:10097000936843F4000393600968102912D10C496D
:100980000C4A0968B1FBF2F101EB8101490000E07A
:10099000491E00910029FBD104E0816A41F0200149
:1009A0008162012480F824502046F8BD00240140D3
:1009B0006800002040420F000068C06C70470000D3
:1009C0002DE9F0414FF0000704003D467ED0A06ABB
:1009D000002628B9E66284F82460204600F07EF8FC
:1009E0002046FFF7B7FDA16AC90600D420B1A06A6E
:1009F00040F01000A06269E0A16A21F4885141F042
:100A00000201A1626268E169237B0A4347EA43016C
:100A10000A43A1684FF48077B94209D0012907D071
:100A20005FF0000194F814C0BCF1010F02D00AE09D
:100A30003946F7E7F3B1A36A43F02003A362E36A00
:100A400043F00103E3622368D3F804C02CF4694C3B
:100A50004CEA010CC3F804C021688B68DFF870C051
:100A600003EA0C0313438B60A168B9420BD0012940
:100A700009D00CE0DFF85CC0A3690CEB43330B43F7
:100A800043F40061DFE7218A0D05A5F58015216893
:100A9000CB6A23F470032B43CB62216889680E4B29
:100AA0001940914208D1E662A16A21F0020141F0A9
:100AB0000101A162BDE8F081A06A20F0020040F0CF
:100AC0001000A062E06A40F00100E0620120F1E75E
:100AD000FDF7E1FF00E0FFFFFE0E1FFF00B585B050
:100AE0000021009101910291039100680E49884212
:100AF00018D10E48816941F400718161816901F466
:100B000000710491816941F0040181618069694645
:100B100000F004000490202000900320019004487D
:100B200000F018F905B000BD00240140001002409B
:100B3000000801402DE9F84300270D4604460097C0
:100B400000F002FA804620688168C90508D5A06ACD
:100B500040F02000A06284F824700120BDE8F883F2
:100B60004168C90503D4C06A10F4700F2AD002206E
:100B700000F0BAFA3B490968B1FBF0F62068036956
:100B800039490B424FEA61014FEAA1121FD1C368F4
:100B90004FEA611C13EA0C0F19D103690B4225D1EE
:100BA000C068104222D1142023E0681C0AD02DB165
:100BB00000F0CAF9A0EB0800A84203D92068006839
:100BC000800725D5206800688007EED52DE00369F1
:100BD0000B4202D1C168114206D0026923490A4280
:100BE00006D1C068084203D1542002E0292000E069
:100BF000FC204643009816E0681C11D02DB100F08F
:100C0000A3F9A0EB0800A8420AD90098B04207D285
:100C1000A06A40F00400A06284F8247003209DE7DD
:100C20000098401C0090B042E6D321686FF012009B
:100C30000860A06A40F40070A06220688068C0F379
:100C4000424007280CD1207B50B9A06A20F4807064
:100C5000A062A06AC00403D4A06A40F00100A062B0
:100C600000207BE768000020244992244992240058
:100C700070B5044690F8240001280DD0012084F8B6
:100C800024002046FFF792FC02004FF0000005D040
:100C900084F82400104670BD022070BDA16A40F2A5
:100CA0000123994341F48071A1621F4D23681F49BC
:100CB000AB4218D10E6816F4702F14D0A66A46F411
:100CC0008016A6620E68760505D5A66A26F400563B
:100CD00046F48056A662A66AF6040AD5E66A26F0AD
:100CE0000606E66206E0A66A26F48016A6625E683C
:100CF000E9E7E06284F824006FF0020018602068E1
:100D00008368C3F34243072B05D1A84208D1096881
:100D100011F4702F04D0816841F480118160B9E72B
:100D2000816841F4A001F9E7002801400424014052
:100D300070B5044600F008F90546601C02D004486E
:100D40000078044400F000F9401BA042FAD370BDC3
:100D50005C0000202DE9F84FDFF8B8910024A9F1DC
:100D6000040B23460F2709F1040AABF1040EC9E076
:100D70000125A5402A40AA427DD1674ED1F804C082
:100D8000ACEB0608B44532D014DCBCF1030F3AD00A
:100D900009DCBCF1000F2AD0BCF1010F1CD0BCF162
:100DA000020F31D11DE0BCF1110F17D0BCF1120FB1
:100DB0002AD119E0B8F5881F19D006DCB8F5803FB4
:100DC00015D0B8F5801F1FD111E0B8F5001F0ED067
:100DD000B8F5041F18D10AE0CB6815E0CB681B1DDD
:100DE00012E0CB6808330FE0CB680C330CE08B6863
:100DF0002BB1012B4FF0080303D0456104E004231D
:100E000002E0056100E00023FF2A01D8064601E068
:100E100000F104064FEA840501D9A5F12005D6F8B2
:100E2000008007FA05FC28EA0C0803FA05F548EAF1
:100E30000508C6F800804D68ED0062D5374DAE69F3
:100E400046F00106AE61AD6924F0030605F0010528
:100E50000095334D06EB050CDCF80850A607360F5D
:100E600007FA06F825EA0805DFF8B880404503D1FF
:100E70004FF0000817E044E0DFF8AC80404502D1B5
:100E80004FF001080FE0DFF8A480404502D14FF099
:100E9000020808E0DFF89880404502D14FF00308CF
:100EA00001E04FF0040808FA06F848EA0508CCF813
:100EB00008804D68D9F80060ED024D4601D5164313
:100EC00000E096432E604D68DAF80060AD025546AA
:100ED00001D5164300E096432E604D68DBF80060B4
:100EE000AD035D4601D5164300E096432E604D6884
:100EF000DEF80060ED03754601D5164300E0964329
:100F00002E60641C0D682A46E5407FF431AFBDE8D1
:100F1000F88F00000804014000001110001002408A
:100F20000000014000080140000C01400010014099
:100F3000001401408068084000D0012070470AB1C9
:100F4000016170470904FBE70148806870470000B1
:100F50005C0000200248816802781144816070477B
:100F60005C000020074810B5016841F010010160E5
:100F7000032000F0A7F80F2000F006F800F050F86A
:100F8000002010BD0020024030B50546204887B043
:100F9000C16941F00101C161C06906A900F0010009
:100FA000009001A800F0FEF90498B8B100F01AFA18
:100FB000400018494FF08042B0FBF1F11648491E3D
:100FC0000260416040F2E7320021C0E90321816004
:100FD000816100F013FC040003D015E000F002FA78
:100FE000E7E70D4800F098FC04000DD11C2000F04C
:100FF0003BF8102D07D2002229461C2000F042F8B1
:101000000648056000E0012407B0204630BD00001E
:101010000010024040420F007C0A002060000020C7
:101020000F4808B5816941F001018161816901F0D2
:1010300001010091C16941F08051C161C069002284
:1010400000F0805000900F21901E00F01BF8054822
:10105000416821F0E06141F00071416008BD00008D
:101060000010024000000140002809DB00F01F02D0
:10107000012191404009800000F1E020C0F80011FA
:1010800070470000F0B40E4B1B680C46C3F30223FC
:10109000C3F10705042D00D90425191D072901D224
:1010A000002300E0DB1E012606FA05F1491E21405F
:1010B00099409E40761E16403143F0BC02F012BCAF
:1010C0000CED00E0064900F0070208684FF6FF0348
:1010D000184040EA0220034A1043086070470000AD
:1010E0000CED00E00000FA0510B501460020234C8D
:1010F000012922D0022939D010291DD16168226826
:10110000D20119D51E48C1F38342C903805C0AD5B8
:1011100061681B4AC1F34041921E515C194AB2FBFF
:10112000F1F1484301E0184948436168490203D49A
:1011300040000321B0FBF1F010BD226AC2F301218F
:10114000012903D1920701D5C80310BD022905D199
:10115000626A920702D549F6404010BD0329FCD1CE
:1011600021688903F9D54FF2244010BD00F04AF9F7
:101170006168C1F38131491C4900DBE7001002407E
:101180006866000800127A0000093D002DE9F84366
:1011900005460078354CC00754D0E0690026C000F1
:1011A00008D4E06940F08050E061E069012600F079
:1011B000805000902E480168C90512D4016880460D
:1011C00041F480710160FFF7BFFE074605E000BFF4
:1011D000FFF7BAFEC01B642823D8D8F80000C0056A
:1011E000F6D5206A10F4407021D0A98801F440712E
:1011F00081421CD0206A1F49012220F440700A60FD
:1012000000220A602062C00711D0FFF79DFE07464A
:1012100041F2883808E000BFFFF796FEC11B414548
:1012200002D90320BDE8F883206A8007F4D5206A3C
:10123000696820F44070084320621EB1E06920F024
:101240008050E0612878800705D56068A96820F49F
:101250004040084360602878C00605D56068E968AA
:1012600020F48000084360600020DBE700100240AB
:1012700000700040400442422DE9F0470F4605004F
:1012800061D0434E306800F00700B84209D23068A0
:1012900020F0070038433060306800F00700B842A3
:1012A00051D128683B4C810712D5400703D56068AF
:1012B00040F4E06060602878000703D5606840F47F
:1012C000605060606068A96820F0F00008436060CA
:1012D0002878C00728D06868012810D02168022823
:1012E00010D0890700292EDA616821F0030101433B
:1012F0006160FFF729FE804641F288390DE02168E0
:101300008903EFE78901EDE7FFF71EFEA0EB080177
:10131000494502D90320BDE8F0876068696800F09C
:101320000C00B0EB810FEFD1306800F00700B8423D
:101330000BD9306820F0070038433060306800F087
:101340000700B84201D00120E5E72878400705D51D
:101350006068E96820F4E06008436060287800076E
:1013600006D56068296920F4605040EAC1006060D9
:1013700000F058F86168084AC1F30311515CC84095
:101380000649086006480068FFF7FEFD0020C2E736
:10139000002002400010024078660008680000202B
:1013A000600000200F2202600C4A536803F0030320
:1013B0004360536803F0F0038360536803F4E06311
:1013C000C36052684FF4E06303EAD202026104484A
:1013D000006800F00700086070470000001002403D
:1013E000002002400448054900684968044AC1F3E6
:1013F0000221515CC8407047680000200010024084
:10140000886600080448054900684968044AC1F331
:10141000C221515CC84070476800002000100240A3
:10142000886600080E4A51680E4801F00C03042B30
:1014300011D0082B0FD10C48C1F38343C903C05C02
:101440000AD55168084AC1F34041921E515C054AD1
:101450005043B0FBF1F07047044948437047000027
:101460000010024000127A005666000800093D0094
:101470002DE9F84F040070D02078C04DC00749D046
:101480006868C0F38100012807D06868C0F3810054
:10149000022809D16868C00306D52868800339D5B9
:1014A00060680028E7D035E06068B0F5803F0BD079
:1014B00010B1B0F5A02F11D0286820F4803028603A
:1014C000286820F4802002E0286840F480302860FA
:1014D000606890B1FFF738FD06460AE0286840F4DE
:1014E00080202860F0E700BFFFF72EFD801B6428F6
:1014F00073D828688003F7D50CE0FFF725FD064672
:1015000005E000BFFFF720FD801B6428F0D82868A5
:101510008003F7D420789A4E80074FF001094FF0EE
:10152000000839D5686810F00C0F07D06868C0F360
:101530008100022809D16868C00306D428688007A2
:1015400014D52069012808D110E02069B0B1C6F88F
:101550000090FFF7F9FC074605E00AE1FFF7F4FC0D
:10156000C01B0228C4D828688007F7D5286861699D
:1015700020F0F80040EAC10028600DE0C6F80080C5
:10158000FFF7E2FC074604E0FFF7DEFCC01B022881
:1015900023D828688007F7D4207800072CD579480D
:1015A000A169D9B1C0F80090FFF7CEFC074604E06E
:1015B000FFF7CAFCC01B02280FD8686A8007F7D55E
:1015C00071484FF4FA510068B0FBF1F0009000BF91
:1015D0000098411E0091FAD20EE080E0C0F8008031
:1015E000FFF7B2FC074604E0FFF7AEFCC01B022881
:1015F00075D8686A8007F7D42078400760D5E86915
:101600000027C00008D4E86940F08050E861E8692C
:10161000012700F0805000905C480168C90513D490
:101620000168834641F480710160FFF78DFC8246BA
:1016300006E000BFFFF788FCA0EB0A0064284ED844
:10164000DBF80000C005F5D5E06801280AD008B134
:10165000052813D0286A20F001002862286A20F0AB
:10166000040002E0286A40F001002862E06841F2CC
:10167000883B98B1FFF768FC82460BE0286A40F08F
:1016800004002862EEE700BFFFF75EFCA0EB0A0152
:1016900059455AD8286A8007F6D50CE0FFF754FC64
:1016A000824605E0FFF750FCA0EB0A0159454CD8F3
:1016B000286A8007F6D41FB1E86920F08050E861FD
:1016C000E06988B36968C1F38101022944D0022826
:1016D000C6F8608004D0FFF737FC044638E034E0F9
:1016E000FFF732FC074604E0FFF72EFCC01B022880
:1016F0002BD828688001F7D4206AB0F5803F05D147
:101700006868A16820F4003008436860D4E90801E3
:101710000843696821F4741108436860C6F8609052
:10172000FFF712FC044606E025E000BFFFF70CFCC3
:10173000001B022809D828688001F7D51BE000BFEC
:10174000FFF702FC001B022802D90320BDE8F88F36
:1017500028688001F4D40EE00128F7D06868226A76
:1017600000F48031914204D1616A00F47010884223
:1017700001D00120EAE70020E8E700000010024065
:101780000000424280044242680000200070004095
:101790007047704770B590F83C20012A26D001248C
:1017A00080F83C40022280F83D2003685A689D681A
:1017B00022F070060A6832435A600D4B02689A4262
:1017C00008D0B2F1804F05D00A4B9A4202D00A4BA2
:1017D0009A4204D1496825F080031943916080F84A
:1017E0003D40002180F83C10084670BD022070BDCD
:1017F000002C0140000400400008004010B5040027
:1018000003D094F83D0010B107E0012010BD002086
:1018100084F83C00204600F01FF8022084F83D00C8
:10182000211D206801F0FAFD012084F8460084F8AB
:101830003E0084F83F0084F8400084F8410084F8BA
:10184000420084F8430084F8440084F8450084F89A
:101850003D00002010BD000008B5174A0168174878
:10186000914207D1816941F400618161806900F48E
:1018700000601EE0124A914211D1C16941F002019B
:10188000C161C069002200F00200009005211D2006
:10189000FFF7F8FBBDE808401D20FFF7E5BB094A4C
:1018A000914207D1C16941F00401C161C06900F0F2
:1018B0000400009008BD0000002C01400010024010
:1018C000000400400008004090F83D10012901D0BC
:1018D00001207047022180F83D1000680B498842C2
:1018E00008D0B0F1804F05D00949884202D009499B
:1018F000884204D1816801F00701062903D00168FC
:1019000041F001010160002070470000002C0140FF
:10191000000400400008004090F83D10012901D06B
:1019200001207047022180F83D100168CA6842F02A
:101930000102CA6000680B49884208D0B0F1804FAC
:1019400005D00949884202D00849884204D18168FB
:1019500001F00701062903D0016841F0010101608F
:1019600000207047002C01400004004000080040A7
:1019700001680A6A41F211131A4207D10A6A9B10E0
:101980001A4203D10A6822F001020A60012180F89C
:101990003D10002070470168CA6822F00102CA6049
:1019A00001680A6A41F211131A4207D10A6A9B10B0
:1019B0001A4203D10A6822F001020A60012180F86C
:1019C0003D100020704770B5044690F83C0000259B
:1019D000012817D0012684F83C60022084F83D00DD
:1019E0002068826822F0770222F47F4282600868D1
:1019F000502838D00DDC20284FD005DC90B31028BB
:101A000011D14AE0022070BD302846D040280AD1CA
:101A10003BE060282FD070280DD0B0F5805F03D058
:101A2000B0F5005F12D0012584F83D60002084F8F5
:101A30003C00284670BDCB68D1E90121206801F047
:101A400036FD2068816841F0770109E0CB68D1E973
:101A50000121206801F02BFD2068816841F480415C
:101A60008160E1E719E0CA684968206801F0D4FDA7
:101A70005021206806E0CA684968206801F0DDFD51
:101A80006021206801F01DFDCEE7CA684968206822
:101A900001F0C2FD40212068F4E7226801461046AB
:101AA000F0E770472DE9F04104460068C668056913
:101AB0004FF00007A90713D5B10711D5F91E016131
:101AC00001202077206880698007204602D0FFF738
:101AD000E8FF04E000F0ACF8204600F03EF927777C
:101AE000680716D5700714D521686FF004000861E7
:101AF000022020772068806910F4407F204602D0C1
:101B0000FFF7CFFF04E000F093F8204600F025F93E
:101B10002777280715D5300713D521686FF00800FF
:101B20000861042020772068C0698007204602D021
:101B3000FFF7B7FF04E000F07BF8204600F00DF956
:101B40002777E80616D5F00614D521686FF0100047
:101B50000861082020772068C06910F4407F204683
:101B600002D0FFF79EFF04E000F062F8204600F08C
:101B7000F4F82777E80708D0F00706D021686FF05F
:101B800001000861204600F037F9280608D5300624
:101B900006D521686FF0800008612046FFF7F8FD48
:101BA000680608D5700606D521686FF04000086108
:101BB000204600F037F9A8060AD5B00608D52168F6
:101BC0006FF0200008612046BDE8F041FFF7E1BD5D
:101BD000BDE8F08130B585B00021009101910291FE
:101BE000039100680F49884219D10F48816941F07B
:101BF0000801816180694FF4807400F0080004904E
:101C00000220CDE900400320084D03906946284694
:101C1000FFF7A0F8012221462846FFF790F905B00A
:101C200030BD00000008004000100240000C0140E0
:101C3000704770B5044690F83C0000260D46012818
:101C40000FD0012084F83C006AB1042A1DD0082A74
:101C50002FD00C2A3FD00126002084F83C003046CB
:101C600070BD022070BD206801F034FC20688169DD
:101C700041F0080181612068816921F004018161DE
:101C8000206881692A69114311E0206801F04AFC4B
:101C90002068816941F4006181612068816921F4D3
:101CA00080618161206881692A6941EA022181613C
:101CB000D2E7206801F062FC2068C16941F00801A8
:101CC000C1612068C16921F00401C1612068C16956
:101CD0002A69114311E0206801F07CFC2068C16989
:101CE00041F40061C1612068C16921F48061C16172
:101CF0002068C1692A6941EA0221C161ACE710B5D7
:101D0000040003D094F83D0010B107E0012010BD9D
:101D1000002084F83C00204600F01EF8022084F8E1
:101D20003D00211D206801F079FB012084F8460068
:101D300084F83E0084F83F0084F8400084F84100B5
:101D400084F8420084F8430084F8440084F8450095
:101D500084F83D00002010BD7047704710B5044660
:101D6000022249B104290ED0082913D094F8410069
:101D7000012816D0012010BD94F83E000128F9D1A9
:101D800084F83E200FE094F83F000128F2D184F857
:101D90003F2008E094F840000128EBD184F840206F
:101DA00001E084F841200122206801F073FB0F4913
:101DB0002068884203D1426C42F4004242642068A9
:101DC000884208D0B0F1804F05D00949884202D03E
:101DD0000849884204D1816801F00701062903D02F
:101DE000016841F001010160002010BD002C01409C
:101DF000000400400008004010B504460068B0F13F
:101E0000804F01D1FFF7A6F804492068884203D12A
:101E100003480168491C016010BD00000004004037
:101E200058000020704770B5040004D094F84100B9
:101E3000002510B106E0012070BD84F84050204616
:101E400000F024F8242084F841002068C16821F4BF
:101E50000051C160204601F029FC2068016921F48D
:101E6000904101612068416921F02A0141612068A7
:101E7000C16841F40051C1606564202084F84100CC
:101E800084F842006563002070BD0000F0B585B0A5
:101E90000024009401940294039403683F4F0220AD
:101EA0003F4903223F4D4602BB4220D18B6943F498
:101EB00080438B618B6903F4804304938B6943F007
:101EC00004038B618969039201F00401049101020A
:101ED000CDE9001069462846FEF73CFFCDE90064D5
:101EE000694628460294FEF735FF05B0F0BD2E4F37
:101EF000BB4226D1CB6943F40033CB61CB6903F4F9
:101F0000003304938B6943F004038B618969039266
:101F100001F0040104910421CDE90010694628462E
:101F2000FEF718FF0820CDE9000469462846029410
:101F3000FEF710FF002206212620FFF7A3F8262037
:101F400028E01A4DAB42D0D1CB6943F48023CB615A
:101F5000CB6903F4802304938B6943F008038B61FE
:101F60008969134D01F00801CDE90321CDE9006035
:101F700069462846FEF7EEFEE814CDE900046946FE
:101F800028460294FEF7E6FE002208212720FFF7EC
:101F900079F82720FFF768F8A7E70000003801402C
:101FA000001002400008014000440040004800408A
:101FB000000C01402DE9F84F044690F842009A4683
:101FC00016460D46202802D00220BDE8F88FB5B194
:101FD000AEB100206064222184F842102063FEF735
:101FE000B3FFA6858146E685A0684FF48058202778
:101FF000404501D1206920B12E46002529E001206D
:10200000E3E7002625E04B46002220212046CDF8BC
:1020100000A001F0A7FB18B184F842700320D4E7B8
:1020200026B1A06840451AD038B108E02068406861
:10203000C0F3080025F8020B08E0206978B1206899
:10204000406800F07F0000BF06F8010BE08D401EE5
:10205000E085E08D0028D6D184F84270B5E720688D
:102060004068F1E72DE9F843044690F841009846AE
:1020700016460D46202802D00220BDE8F88385B11F
:102080007EB100206064212084F84100FEF75CFFEF
:10209000A6848146E684A0682027B0F5805F02D040
:1020A00003E00120E9E7206910B12E4600250EE08B
:1020B00000260CE08021204601F054FBA8B9C6B1EF
:1020C00016F8010B21684860E08C401EE084E08C2B
:1020D0004B464FF00002CDF800800028EAD14FF0C7
:1020E0004001204601F03EFB40B184F841700320DE
:1020F000C3E735F8020BC0F30800E3E784F841704A
:102100000020BAE710B500F0D3FBBDE8104000F0A6
:1021100065BB000070B50F4D4FF4006400222146EE
:102120002846FEF70CFF002261002846FEF707FF55
:10213000012221462846FEF702FF1220FEF7F8FD95
:10214000002221462846FEF7FAFE034900200968CE
:10215000486270BD00080140CC080020FEE710B5C1
:102160000446007B012802D1206801F035FE0020E2
:1021700020606060A060207310BD00005FF001026D
:1021800000F07F030B70C00909D043F08003521C9C
:1021900001F8013B042AF3DD4FF0FF307047104691
:1021A00070472DE9F0410446002500680F462E4691
:1021B00010B10220207315E001202073084601F0C1
:1021C0007DFF2060002808D0C4E9016702E0206894
:1021D00046556D1CA068A842F9D8BDE8F08120687A
:1021E00046556D1CA068A842F9D866608842F4D2B2
:1021F0002660F2E72DE9FF5F9A46934600251046D8
:10220000DDF844900E9F139CFEF72AF806B2009862
:10221000FEF726F80198FEF723F8BBF1000F1FD058
:1022200006F111001FFA80F807B10225109868B175
:1022300045F00405FEF714F8C7B24846FEF710F85B
:10224000C11901EB0800001D1FFA80F80F9870B14A
:10225000012807D0022808D0022004B0BDE8F09F72
:102260000120FAE745F00C0501E045F0140512984D
:1022700008B145F02405009860B3019850B345F0CB
:10228000C0070098FDF7ECFF05460198FDF7E8FF51
:10229000291801EB0800001D85B229462046FFF7EA
:1022A00080FF2068C0B12946FDF7B3FFD4E90030B4
:1022B000411C102261601A54D4E900010144681FD6
:1022C000FFF75CFF00B2002808DA2046FFF747FF5F
:1022D0000520C2E70320C0E70420BEE76168236849
:1022E0000844411C616000221A54D4E90030421CA9
:1022F000042162601954D4E90050421C4D236260ED
:102300002B54D4E90050421C626051232B54D4E971
:102310000030451C542265601A54D4E90050431C17
:1023200063602A54D4E90030421C62601954D4E935
:102330000020411C61601754D4E90030411C4FEA71
:102340001A2261601A54D4E90030421C626003F81A
:1023500000A0D4E90030411C320A61601A54D4E96B
:102360000020411C61601654D4E900010844324643
:102370005946FDF77CFF606830446060780736D5C9
:10238000B9F1000F01D10FF2D8091098FDF768FFDD
:1023900085B2D4E90030411C2A0A61601A54D4E99C
:1023A0000020411C61601554D4E9000108442A460C
:1023B0001099FDF75CFF6068284460604846FDF7AF
:1023C0004FFF85B2D4E90030411C2A0A61601A54DB
:1023D000D4E90020411C61601554D4E9000108448F
:1023E0002A464946FDF743FF606828446060380686
:1023F00018D50098FDF734FF85B2D4E90030411CB0
:102400002A0A61601A54D4E90020411C6160155405
:10241000D4E9000108442A460099FDF728FF6068C6
:1024200028446060780618D50198FDF719FF85B239
:10243000D4E90030411C2A0A61601A54D4E9002012
:10244000411C61601554D4E9000108442A460199F1
:10245000FDF70DFF6068284460600020FDE6000085
:10246000000000002DE9FF5F8B46DDE90EA24FF072
:102470000005119C99465FEA0008294608D1012011
:1024800004B0BDE8F09F232817D02B2815D06D1C71
:102490001BF805000028F6D141F030070AB147F0DB
:1024A000010705EB0906B61C5FEA0A000DD00128FA
:1024B00005D0022806D00320E2E70220E0E747F03B
:1024C000020701E047F00407B61CF11C2046FFF7A5
:1024D00068FE2068A0B1F11CFDF79BFED4E9002046
:1024E000411C61601754D4E9000101443046FFF7F4
:1024F00045FE002806DA2046FFF731FE0520BFE73B
:102500000420BDE7616823680844411C2A0A616011
:102510001A54D4E90020411C61601554D4E900012B
:1025200008442A465946FDF7A2FE6068BAF1000F3A
:10253000284460600BD02368411C4FEA1822616078
:102540001A54D4E90030421C626003F800800298FB
:1025500050B1D4E9000108444A460299FDF787FECC
:10256000616801EB09006060002089E71FB5002069
:1025700001AC0122069B009084E80D000B46024648
:1025800004A10A20FFF76EFF002800D0012004B04C
:1025900010BD0000247379732F41323757594E68AC
:1025A0004E53342F646576312F7468696E672F70CF
:1025B000726F70657274792F706F73740000000011
:1025C000F0B50446002001235D05106012E0275C91
:1025D000166807F07F0707FB03661660265C360661
:1025E00001D4401CF0BDDB01AB4202D36FF001000F
:1025F000F0BD401C8842EADB4FF0FF30F0BD41786F
:10260000022901D001207047817819B1012901D038
:10261000FF207047C078704738B504460078FF2126
:102620000009421E0E2A01D3084638BD0328FCD1FA
:10263000002000906A460421601CFFF7C1FF20447F
:102640000099401C022907D32278D20704D10288BE
:1026500052BA921C8A4201D9FF2038BD04A1801CC5
:10266000FDF7E2FD08B10F2038BD032038BD0000A2
:1026700024637265710000003EB500241148009487
:10268000019402940E49846001600473047501256D
:1026900005614FF460214460C161FEF791F908B112
:1026A000FEF70AF90520CDE90005694602940548C0
:1026B000FEF704F9002801D0FEF7FEF83EBD000049
:1026C000002401409C08002030B5C7B00020439092
:1026D000449043A801F047FD3E4C3F4D0022A063CB
:1026E000D5E90001CDE94501012145A801F06EFDC4
:1026F0000835606395E80F003FAD85E80F000021C5
:102700003FA801F01DFD344920631C2218316846A2
:10271000FDF766FD0021684601F02DFD2E49E060C1
:102720001C22343107A8FDF75BFD002107A801F04A
:1027300022FD294920611C2250310EA8FDF750FDD1
:1027400000210EA801F017FD234960611C226C31A5
:1027500015A8FDF745FD002115A801F00CFD1E4947
:10276000A0611C2288311CA8FDF73AFD00211CA89D
:1027700001F001FD1849E0611C22A43123A8FDF7F6
:102780002FFD002123A801F0F6FC134920621C2232
:10279000C0312AA8FDF724FD00212AA801F0EBFC96
:1027A0000D4960621C22DC3131A8FDF719FD0021C2
:1027B00031A801F0E0FC0849A0621C22F83138A8D9
:1027C000FDF70EFD002138A801F0D5FCE06247B00E
:1027D00030BD000018000020406500082DE9F043DE
:1027E00085B000252F4800950195029503958169D4
:1027F00041F020018161816901F02001049181692A
:1028000041F004018161816901F004010491816951
:1028100041F0080181618069DFF88C9000F00800C8
:10282000049001224FF403514846FEF788FBDFF87D
:102830007C804FF40067002239464046FEF77FFB5C
:1028400041F2C300CDE900050124694602944046E7
:10285000FEF780FA2003CDE9000569460294484658
:10286000FEF778FA6003CDE900040326CDE90246BD
:1028700069464846FEF76EFACDE90074CDE9024696
:1028800069464046FEF766FAC020009001AA112072
:1028900082E8610069464846FEF75CFA05B0BDE88B
:1028A000F083000000100240000C014000080140CD
:1028B00010B586B000241748009401940294039444
:1028C00004941349059401604721C0E901144FF6AF
:1028D000FF71C0E9031444618461FEF78FFF08B102
:1028E000FDF7EAFF4FF48050009069460948FFF772
:1028F0006AF808B1FDF7E0FF049404A905480594BF
:10290000FEF748FF002801D0FDF7D6FF06B010BD46
:10291000002C0140CC08002010B586B000241748D8
:102920000094019402940394049413490594016063
:1029300041F61F41C0E9011442F20F71C0E90314CE
:102940008461FEF75BFF08B1FDF7B6FF4FF48050DE
:10295000009069460948FFF736F808B1FDF7ACFF6B
:10296000049404A905480594FEF714FF002801D03B
:10297000FDF7A2FF06B010BD0004004014090020BE
:1029800010B58EB000240794089409940A940B940F
:102990001C2168460C94FDF73CFC1F481D49016052
:1029A00041F61F41C0E901146321C0E903148461A9
:1029B000FEF724FF08B1FDF77FFF4FF4805007902A
:1029C00007A91548FEF7FFFF08B1FDF775FF12488C
:1029D000FFF795F908B1FDF76FFF0B940BA90E48AF
:1029E0000C94FEF7D7FE08B1FDF766FF6020CDE935
:1029F0000004022002900822694604940648FFF76A
:102A000018F908B1FDF758FF0348FFF7E3F80EB0D7
:102A100010BD0000000800405C0900200C4810B503
:102A20000A4901604FF416514160002181600C2277
:102A3000C160C0E904128161C161FFF7F4F90028A7
:102A400003D0BDE81040FDF737BF10BD003801408E
:102A5000A40900200C4810B50A4901604FF4165132
:102A60004160002181600C22C160C0E904128161D3
:102A7000C161FFF7D8F9002803D0BDE81040FDF789
:102A80001BBF10BD00440040EC0900200C4810B5ED
:102A90000A4901604FF416514160002181600C2207
:102AA000C160C0E904128161C161FFF7BCF900286F
:102AB00003D0BDE81040FDF7FFBE10BD0048004048
:102AC000340A0020FEE7000030B5D1B005464022B0
:102AD0000AA140A8FDF784FB184840A9026868468F
:102AE00000F0ECFE6846FDF7BBFB84B22246694667
:102AF0002846FDF775FB51B0E0B230BD7B2269641A
:102B0000223A22313233222C2276657273696F6E3B
:102B1000223A22312E30222C22706172616D732292
:102B20003A7B226C69676874223A7B2276616C7505
:102B300065223A25647D7D7D000000002000002094
:102B4000FEE770B500240021204600F0D6F80025ED
:102B5000002000F0BFF96D1CEDB2802DF8D3641C8D
:102B6000E4B2082CEFD370BD10B5FFF737FE064C6A
:102B7000012240212046FEF7E2F920460122BDE86D
:102B800010408021FEF7DBB9000C01402DE9F04137
:102B90000024124E0746802525FA04F23A4080218F
:102BA0003046FEF7CCF9012240213046FEF7C7F946
:102BB000002240213046FEF7C2F9641CE4B2082C22
:102BC000EAD3012240213046FEF7B9F93046BDE88C
:102BD000F04100224021FEF7B2B90000000C014094
:102BE00010B50B4C012280212046FEF7A8F90122E6
:102BF00040212046FEF7A3F9002280212046FEF75F
:102C00009EF920460022BDE810404021FEF797B90A
:102C1000000C014010B5094C002280212046FEF72F
:102C20008EF9012240212046FEF789F92046012233
:102C3000BDE810408021FEF782B90000000C014081
:102C400010B500204FF47A720021491C9142FCD348
:102C5000401C9042F8D3FFF787FFAE2000F029F91F
:102C6000D52000F026F9802000F023F9A82000F0FC
:102C700020F93F2000F01DF9D32000F01AF90020C0
:102C800000F017F9402000F014F9A12000F011F92C
:102C9000C82000F00EF9DA2000F00BF9122000F045
:102CA00008F9812000F005F9CF2000F002F9D920C1
:102CB00000F0FFF8F12000F0FCF8DB2000F0F9F85C
:102CC000302000F0F6F8A42000F0F3F8A62000F081
:102CD000F0F88D2000F0EDF8142000F0EAF8AF20B5
:102CE00000F0E7F8BDE81040FFF72BBF02460120D7
:102CF00000E05043491EFCD2704710B50C4640F02E
:102D0000B00000F0D6F8102040EA141000F0D1F81E
:102D100004F00F00BDE8104000F0CBB82DE9F04101
:102D20000746CE004000083E801E15464FF0FF3893
:102D3000F1B2C0B2FFF7E1FF1148002400EB051526
:102D40002819A0F5805090F8000E00F0C3F8641C1C
:102D5000E4B2082CF4D308EB4700F1B2C0B2FFF79D
:102D6000CCFF00242819A0F5805090F8080E00F040
:102D7000B1F8641CE4B2082CF4D3BDE8F081000083
:102D8000505F00082DE9F0410746CE004000083EA4
:102D9000801E15464FF0FF38F1B2C0B2FFF7ADFF0D
:102DA0000D48002400EB4515285D00F093F8641CE5
:102DB000E4B2102CF8D308EB4700F1B2C0B2FFF731
:102DC0009CFF00242819007C00F084F8641CE4B205
:102DD000102CF7D3BDE8F081F05C00082DE9F04736
:102DE00000241D461646884681460A2713E0291B03
:102DF0000A20491EFFF77AFFB6FBF0F0B0FBF7F1AF
:102E000007FB110208EB0400C1B248463032FFF75D
:102E100085FF641CE4B2AC42E9D3BDE8F0872DE93C
:102E2000F04115460E460746002406E03019C1B2AF
:102E30003846FFF773FF641CE4B22A5D002AF5D11F
:102E4000BDE8F08110B5FFF77CFE002202210120D1
:102E5000FFF798FF012204211046FFF793FF3A2263
:102E600006210120FFF75AFF02210B220846FFF737
:102E700089FF0C2204210220FFF784FF3A22062159
:102E80000220FFF74BFF092202210320FFF77AFF00
:102E90000A2204210320FFF775FF112202210420DA
:102EA000FFF770FF12220421BDE810400846FFF72B
:102EB00069BF10B50446FFF793FE7820FFF766FE62
:102EC0000020FFF763FE2046FFF760FEBDE81040DC
:102ED000FFF7A0BE10B50446FFF782FE7820FFF78B
:102EE00055FE4020FFF752FE2046FFF74FFEBDE89B
:102EF0001040FFF78FBE000030B58BB0002106A850
:102F00000991CDE9041001240691CDE90041079112
:102F100008910291039123020FA2114911A0FFF71A
:102F200069F9B0B9079881B20698FDF793FCFA20C9
:102F3000FDF7D6FB050009D0FFF76EFB022805D18F
:102F40002846FFF75CFB002800D8002406A8FFF7FE
:102F500006F90BB0204630BD6465763100000000F4
:102F60009066000841323757594E684E533400007E
:102F700030B5B7B000203390349035900446369089
:102F8000C82101A8FDF745F901A8FFF79DFD05003F
:102F90001ED033A800900523002229460DA0FFF77C
:102FA000E5FA002814D101A8AC4209DA015DDDE997
:102FB0003323D1543499491C641C24B23491F3E76F
:102FC000349881B23398FDF745FC33A8FFF7C7F872
:102FD00037B030BD6465763100000000184C4FF00A
:102FE000FF363146A06B02F0FBFA00F04FFF0023E2
:102FF00005461A461946A06B02F046F920790128C9
:1030000019D1E078022816D1681CC0B2032D07D26E
:1030100030B1012807D0022808D003280BD108E0DE
:1030200000F0D4FF07E000F0C5FF04E000F0AAFFC5
:1030300001E000F0B3FF0A2001F076F8D1E70000CC
:103040001800002001252F4600260D4C00F024FF1B
:10305000207001280AD0667001F096FD012500F06D
:1030600093FEA6700A2001F05FF8EFE72DB1002073
:1030700001F066FD01F076FD00256770F2E70000C3
:103080001800002008B50024124D8DF800400126DC
:10309000687898B100F0C8FEFDF793F98DF800004C
:1030A000002314226946286B02F0EEF89DF8000018
:1030B0000A2801D2AE7009E0AC7007E08DF800403C
:1030C000002314226946286B02F0DEF80A2001F082
:1030D0002BF8DDE71800002000250F4C00F0ECFE77
:1030E000E070012804D0032809D004280AD00EE09B
:1030F0002079411C2171022809D3257107E001F0D4
:103100004FFD04E001F040FD002001F019FD0A2010
:1031100001F00AF8E2E700001800002008B50020DE
:10312000354C8DF80000207920B1012809D0022803
:1031300011D11AE002220A210120FFF723FE032207
:1031400005E004220A210120FFF71CFE05220C21C4
:103150000120FFF717FE00F099FE68B101280DD09D
:10316000022814D003280ED113E006220A210120E0
:10317000FFF708FE0722EAE7102200E00D220B21EC
:103180000220FFF7FFFD207828B1082204E00E227C
:10319000F5E70F22F3E7092202210320FFF7F2FDF2
:1031A00014226946206B02F07FF92078012808D0AC
:1031B00012A20B210320FFF732FE0A2000F0B4FF19
:1031C000B1E702239DF800200B210320FFF706FE44
:1031D0000CA20E210320FFF722FE01F0ABFC0246F9
:1031E00002230B210420FFF7F9FD73220E21042096
:1031F000FFF794FDE1E700001800002020202020C8
:1032000020200000636D0000234C4FF0FF3529465D
:10321000A06B02F0E5F900F039FE002306461A46DD
:103220001946A06B02F030F836B1012E07D0022EFD
:1032300008D0032E0BD108E000F0C8FE07E000F034
:10324000B9FE04E000F09EFE01E000F0A7FE207948
:1032500002281DD100F0A8FD3038062818D2DFE87A
:1032600000F00306090C0F1200F0B0FE10E000F0B1
:10327000A1FE0DE000F086FE0AE000F08FFE07E000
:1032800001F08EFC04E001F07FFC002001F058FC0E
:103290000A2000F049FFBAE7180000200F4C2079FF
:1032A000B8B9207898B1052000F09CFE1E2802D203
:1032B00000F074FE0DE0A0F11E01282902D200F0FA
:1032C00061FE06E0462804D300F074FE01E000F041
:1032D0007DFE0A2000F028FFE1E700001800002032
:1032E0000A250E4C0126207848B101F023FCC0B21B
:1032F0000A2804D3B0FBF5F105FB110028B1A07832
:1033000028B100BF00F048FD03E0A670FAE700F026
:103310003BFD0A2000F008FFE5E700001800002050
:1033200008B500200346009007484FF4FA520421E4
:10333000406B02F0ADFC012802D004A000F0AEFA10
:103340000A2000F0F1FEFBE71800002074696D65AB
:1033500072206572726F720D0A00000010B5502065
:1033600080F31188BFF34F8FBFF36F8F02F09AFA8B
:1033700018B104494FF080500860002080F3118894
:1033800010BD000004ED00E030B593B02821684680
:10339000FCF73FFF14210AA8FCF73BFF00250120A2
:1033A0000F9510951195010412958DE82300049056
:1033B0004FF4E010CDE90810022407946846FEF7A8
:1033C00057F808B172B6FEE70AA90F2081E831006C
:1033D0004FF48060CDE90D0502210AA8FDF74CFFEE
:1033E00008B172B6FEE74FF4004011900F940FA899
:1033F000FDF7CCFE002801D072B6FEE713B030BD59
:10340000704700000148FEF74DBB00007C0A002019
:103410000148FEF747BB000014090020F0B5026820
:10342000194B1A4C1A4D4FF08047984205D0B842BC
:1034300003D0A04201D0A84203D122F070064A680E
:103440003243984205D0B84203D0A04201D0A842EE
:1034500003D122F44074CA6822434C6922F08002EE
:10346000224302608A68C2620A688262984201D17D
:1034700009690163012141610169C90703D001693B
:1034800021F001010161F0BD002C01400004004069
:103490000008004010B501F01F030121046A9940A3
:1034A0008C430462016A9A401143016210BD10B559
:1034B000846842EA032224F47F440A432243826060
:1034C00010BD826822F070020A4342F00701816059
:1034D0007047000030B5036A026A22F001020262FE
:1034E0004268846924F073050C682C4323F00205BC
:1034F0008B682B430A4DA8420BD123F00805CB68FB
:1035000022F440722B434D6923F0040315438A696A
:103510002A434260846149684163036230BD000010
:10352000002C014030B5026A036A23F010030362E5
:10353000436884690D6824F4E64444EA05248D68F0
:1035400022F0200242EA05120B4DA8420ED1CD68AE
:1035500022F0800242EA05124D6923F4406343EAF7
:1035600085038D6922F0400243EA8503436084614C
:1035700049688163026230BD002C014030B5036AA6
:10358000026A22F4807202624268C46923F4007302
:1035900024F073050C682C438D6843EA05230C4D19
:1035A000A8420ED1CD6823F4006343EA05234D6998
:1035B00022F4405242EA05128D6923F4806342EA04
:1035C00005124260C4614968C163036230BD0000F6
:1035D000002C014030B5046A026A22F48052026273
:1035E0004268C3690D6823F4E64343EA05238D6806
:1035F00024F4005444EA0534064DA84204D14D6930
:1036000022F4804242EA85124260C3614968016443
:10361000046230BD002C014010B5036A046A24F036
:1036200001040462846924F0F00444EA021423F0E3
:103630000A020A438461026210BD10B5036A046A7B
:1036400024F010040462846923F0A00324F470447D
:1036500044EA023243EA01118261016210BD01684D
:103660000C3151E8002F22F4907241E80023002B26
:10367000F5D10168143151E8002F22F0010241E830
:103680000023002BF5D1016B012909D101680C3110
:1036900051E8002F22F0100241E80023002BF5D161
:1036A000202180F8421000210163704770B5044664
:1036B00000680169E26821F4405111430161216908
:1036C000A0680843616908432168CA6841F20C6335
:1036D0009A430243CA6020684169A26921F440719B
:1036E000114341611E492068884202D1FDF78AFEDC
:1036F00001E0FDF777FE00EBC00101EB001260680E
:1037000064218000B2FBF0F3B3FBF1F36FF0180615
:103710007343B2FBF0F5B2FBF0F605EB8305322301
:1037200003EB0515B5FBF1F5B6FBF1F605F0F00579
:1037300005EB0615B2FBF0F6B2FBF0F0B0FBF1F0D2
:103740006FF01802504306EB800003EB0010B0FB53
:10375000F1F0216800F00F002844886070BD00007F
:10376000003801402DE9F843984617460D460446B7
:10377000089E24E0701C22D0FDF7E6FBA0EB0800B9
:10378000B0421AD8CEB12068C168490717D5802D3C
:1037900015D0402D13D00168C94309070FD4016823
:1037A0000025406800902046FFF759FF082060641C
:1037B00084F840500120BDE8F8830320FBE720682F
:1037C000006835EA000004D00020B842D2D00020C2
:1037D000F1E70120F9E70000F8B5154D2868006809
:1037E000144CC043144F80064FF000060ED40A2339
:1037F0000122A11C2846FEF7DDFB6078802800D35B
:1038000066706078A1783954401C60702868006840
:10381000C043C0060BD4084908A000F03FF8387830
:1038200020703E6066702868016840680090F8BDAE
:10383000EC09002001000020F4000020626C756596
:10384000546F6F74685F726563763A2025730D0A52
:10385000000000000D4810B500680068C0438006F5
:1038600012D40B4C6088802801D3002060804FF474
:103870007A73012206490548FEF79CFB054A6088D9
:1038800021781154401C608010BD0000340A0020D3
:103890001200002074010020FEE700000FB4054B69
:1038A00010B503A9044A029800F03CF810BC5DF87A
:1038B00014FB0000B93D0008E80000200FB4084BDD
:1038C00010B504A902AA039800F02CF8044602A936
:1038D000002000F052FA204610BC5DF814FB0000F6
:1038E0007B3D00080907090E002804DB00F1E020F9
:1038F00080F80014704700F00F0000F1E02080F81D
:10390000141D704702E008C8121F08C1002AFAD12E
:1039100070477047002001E001C1121F002AFBD14F
:10392000704700002DE9FF4F8DB00F460546002679
:1039300006E025280BD0DDE90F1290476D1C761CA0
:1039400028780028F5D111B03046BDE8F08F00246A
:10395000A246A1460122E94900E0044315F8013FCF
:10396000203B02FA03F00842F7D128782A2810D029
:103970006FF02F022878A0F13001092914D80AEB42
:103980008A0102EB410144F0020400EB010A6D1CC4
:10399000F0E701CF5FEA000A03D544F40054CAF10E
:1039A000000A44F002046D1C28782E2817D115F85F
:1039B000010F44F004042A280ED06FF02F0228785B
:1039C000A0F1300109290AD809EB890102EB410174
:1039D00000EB01096D1CF2E757F8049B6D1C287879
:1039E0006C280FD006DC4C2817D068280DD06A2828
:1039F00014D104E0742810D07A280FD10DE044F4DB
:103A000000140AE044F4801401E044F4401469789E
:103A1000814202D104F580146D1C6D1C28786E283B
:103A20001ED00CDC632830D004DC00288BD0582852
:103A300011D19FE0642867D069280CD164E0732815
:103A40002DD004DC6F2872D0702804D194E0752842
:103A50006ED078286DD0DDE90F129047761C4BE1CF
:103A6000C4F30250022806D0032809D0042801CF4D
:103A700009D0066040E101CFF117C0E900613BE1E8
:103A800001CF068038E1067036E117F8040B8DF897
:103A9000000000208DF80100EB46012003E057F8FC
:103AA00004BB4FF0FF3061074FF0000102D40DE07E
:103AB00008F10101884649450FDA8045F8DB1BF81B
:103AC00008100029F4D108E008F10101884681427C
:103AD000FADB1BF808100029F6D1DDE90F23AAEB69
:103AE00008008146214600F031F9304400EB080619
:103AF00004E0DDE90F121BF8010B9047B8F1010853
:103B0000F7D221464846F2E00A21C4F302524FF0B0
:103B1000000B0891022A04D001CFC117032A09D053
:103B20000AE0FF1D27F00707F7E8020108E02CE094
:103B30001EE01FE000B2C117042A01D140B2C11734
:103B4000021E71F1000206DA0023D0EB030063EBE2
:103B500001012D2202E0220504D52B228DF824201C
:103B6000012203E0E20701D02022F7E7904653E06C
:103B70000A210BE0102109E010214FF0000B44F066
:103B800004044FF00809089103E008214FF0000BEE
:103B90000891C4F30252022A04D001CF0021032A63
:103BA00006D006E0FF1D27F00707F7E8020103E053
:103BB00080B2042A00D1C0B24FF0000822072BD5F2
:103BC0002A78702A07D0DDF820C08CF0100C5CEA4F
:103BD0000B0C05D00EE040228DF82420012208E0D5
:103BE00050EA010306D030238DF824308DF82520CB
:103BF00002229046089B83F0080353EA0B030BD183
:103C000050EA010201D1620706D530228DF8242046
:103C10004FF00108A9F101092A78582A04D038A2E6
:103C20000B9208AA0A920BE03AA2F9E75B46089ABF
:103C3000FCF7E0FB0B9B9B5C0A9A521E0A921370E6
:103C400050EA0102F2D10A98ADEB000000F1200B1E
:103C5000600702D524F4803401E04FF00109D94512
:103C600002DDA9EB0B0000E0002000EB0B0141445A
:103C70000890AAEB010AE00306D4DDE90F232146F0
:103C8000504600F063F806444FF0000908E009A927
:103C900011F80900DDE90F12904709F10109761CBE
:103CA000C145F4DBE0030CD5DDE90F232146504686
:103CB00000F04CF8064404E0DDE90F123020904794
:103CC000761C0899481E08900029F5DC08E00A983F
:103CD0000A990078491C0A91DDE90F129047761C79
:103CE000BBF10001ABF1010BF1DC21465046DDE9EF
:103CF0000F2300F019F806446D1C21E60928010085
:103D00003031323334353637383961626364656651
:103D10000000000030313233343536373839414213
:103D200043444546000000002DE9F04104460025CB
:103D30001E461746880404D405E039462020B047C3
:103D40006D1C641EF9D52846BDE8F0812DE9F041CF
:103D5000044600251E469046C80301D5302700E0E2
:103D60002027880404D505E041463846B0476D1C3D
:103D7000641EF9D52846BDE8F0810A68531C0B6023
:103D800010707047AFF30080012251030148FDF726
:103D9000D6B80000000C014000224FF40051014849
:103DA000FDF7CDB8000C01400249392208780A70AD
:103DB000704700000100002038B504468DF800006F
:103DC0004FF47A73012269460248FEF74BF9204608
:103DD00038BD0000A409002010B5002821D0114BE7
:103DE0000022001F196803E0814203D80A4649688F
:103DF0000029F9D152B11368841A9C4204D1006899
:103E000018441060104602E0506000E0186039B1BC
:103E100002680B1A934203D10B681A440260496886
:103E2000416010BDEC00002070B5FEF773F9124D33
:103E30004FF4805421462846FDF77CF80028F9D03D
:103E400000F084FE21462846FDF774F80128F9D0D9
:103E500000F082FE09480068406A80B2FCF7A4FACC
:103E60004FF0FF32FCF789FA054A064BFCF713FACC
:103E7000054AC2E9000170BD00080140CC080020DD
:103E8000006F8104C58FA13F080000200148007821
:103E9000704700000000002010B54FF48051044826
:103EA000FDF748F808B1002010BD012010BD00004A
:103EB000000C01407047000070B5294E294C0025C8
:103EC000307898B101212046FDF734F830B3022153
:103ED0002046FDF72FF808B340212046FDF72AF8C9
:103EE000E0B180212046FDF725F8B8B10121204638
:103EF000FDF720F880B102212046FDF71BF858B1EC
:103F000040212046FDF716F830B180212046FDF70C
:103F100011F808B101203070284670BD0A20FCF766
:103F200007FF0020307001212046FDF703F888B11B
:103F300002212046FCF7FEFF70B140212046FCF72D
:103F4000F9FF58B180212046FCF7F4FF0028E3D1A7
:103F50000425E1E70125DFE70225DDE70325DBE7AF
:103F600010000020000801407047000010B5FEF767
:103F700007FDBDE8104008210148FDF7EFBE000035
:103F80005C090020034932200968C8630249022005
:103F9000087070475C09002000000020034963207E
:103FA0000968C86302490320087070475C09002053
:103FB0000000002003490A200968C8630249012063
:103FC000087070475C0900200000002003490020B1
:103FD0000968C86302490870704700005C09002046
:103FE0000000002010B5FCF727FB64214843A1EB3B
:103FF0001030C0B210BDFEF73FBB0000FCF7B2FFAF
:10400000FEF71EFEFCF72EFBFEF77CF8FFF7F3FF32
:10401000FFF750FFFFF7B6FEFFF7A6FFFFF7B4F973
:10402000FEF7DCFBFEF7FAFCFEF714FDFEF774FC6E
:10403000FEF73EFCFEF720FBFEF728FDFFF796FF9C
:10404000FEF700FFFCF76CFB0AA0FFF727FC4FF41C
:10405000FA7402E0204600F067F8FEF74DFF0028F2
:10406000F8D109A0FFF71AFCFEF72EFB00F063F869
:10407000FEE70000D2D1C1ACBDD36D717474B7FE40
:10408000CEF1C6F70D0A0000D2D1C1ACBDD36F6E20
:10409000656E6574C9E8B1B8A3ACBFC9D2D4BFAA74
:1040A000CABCC9CFB4ABCAFDBEDDC1CB210D0A006D
:1040B00001460020842900D0C81C7047F0B50B30A1
:1040C000154D20F007010024144A0FE003688B42CD
:1040D0000BD38B4205D95E1A43184768C3E90067C2
:1040E00000E04368136002C004E0021D106800286D
:1040F000ECD12046002802D1286808B10020F0BD8C
:10410000064A07481060074A121A22F00702C0E95F
:10411000002401202860D7E7F0000020EC000020F8
:10412000A4240020A026002010B500B9012000F032
:1041300075FE002010BD10B500F028FF002010BD56
:1041400038B5D0E9011204683AB1C3682BB1002038
:104150000090204601F021F838BD2046BDE83840E7
:10416000002200F0F9BF41684FF0010009B100F0F2
:10417000E6BF00F0D9BF7FB50D4604464169B0F9EE
:10418000080081B1A16971B1FFF792FFD4E905126E
:104190008DE80700D4E900102B46226901F043FBAB
:1041A000039004B070BDFFF783FF03A9CDE90001C0
:1041B000208A2B4682B2D4E9001001F007FB0128C7
:1041C00001D00020EDE70398EBE700001CB511C813
:1041D0006CB1CDE90004012907D000201346024646
:1041E000012109A001F00CFD1CBD0120F6E70090A3
:1041F000012907D0002013460246012102A001F048
:10420000E5FC1CBD0120F6E7000000002DE9F041AF
:10421000184C0F460546E6682068001D00F0CAFCF1
:1042200038B9206890F82C1001208840216981431A
:104230002161681C07D137B12168BDE8F0410E4803
:10424000091D00F007BD20683544B542456021686E
:1042500005D2A06BBDE8F041091D00F0E3BC606B26
:10426000091D00F0DFFCA06A854200D2A562BDE80E
:10427000F08100006C000020E00B00202DE9F041EF
:10428000054600F0F3FC2E4CA068401CA06020689E
:104290002C4F10B1606940B32DE02560A068012863
:1042A00029D1002606EB860007EB800000F0ACFC6D
:1042B000761C072EF6D323488C3000F0A5FC21484D
:1042C000A03000F0A1FC1F48B43000F09DFC1D4858
:1042D000C83000F099FC1B48DC3000F095FC194810
:1042E0008C3060631430A06305E02068E96AC06A1E
:1042F000884200D82560606A401C6062E96A01203B
:10430000226988401043206101EB810007EB8000A7
:10431000291D00F09FFC00F0C9FC606900280CD04A
:104320002068E96AC06A884207D207494FF0805086
:104330000860BFF34F8FBFF36F8FBDE8F0810000BF
:104340006C000020040B002004ED00E038B500F004
:104350008DFC104C2068C8B90F4800F055FC0E4881
:10436000143000F051FC0C48E060143020610A4B1E
:104370000020C03B009003F148020C210A2000F00D
:104380000CFF206010B105A100F012FDBDE838401F
:1043900000F08CBCA8000020B40C0020546D7251B9
:1043A0000000000030B4026C0B46002A0BD0C1683C
:1043B0001144C1608468A14201D30168C16030BC6E
:1043C0001846FBF70DBF30BC70472DE9F041856BF7
:1043D000174604460026026C82B1C7B1E068FBF7BD
:1043E000FFFEE168206C091AE1602268914202D266
:1043F000A168081AE060022F16D017E02068A8B95B
:10440000A06801F0B5FA06460020A0600EE06068E2
:10441000FBF7E6FE216C606808446060A168884292
:1044200004D32068606001E005B16D1E6D1CA563BA
:104430003046BDE8F08110B5044690F8510058B1FF
:1044400001280CD002280FD0502080F31188BFF330
:104450004F8FBFF36F8FFEE7206B00F03BFC2046D1
:10446000BDE8104000F036BC10BD000010484FF40D
:10447000BE51420706D0C01D0D4920F00700411A69
:10448000C1F5BE510B4A00230144C2E900030839BB
:10449000183A21F0070111604B600B600B1AC0E95C
:1044A000001393604FF0004053605061704700006C
:1044B000DC0C0020D4000020144E154CA6F1C807D7
:1044C0004FF08058DFF84C9012E000BF00F0CEFBB8
:1044D000F068C568281D00F06DFBA068401EA06054
:1044E0006068401E606000F0E1FB2846FFF7A3FF14
:1044F00060680028EAD138680128F9D9C9F8008035
:10450000BFF34F8FBFF36F8FF2E70000CC0B00209B
:104510006C00002004ED00E0002807D0002181603D
:1045200001600B460A46C16000F0AEBE704703460C
:10453000009829B10260C0E90F31012100F060BE8E
:104540000060F8E72DE9F0479A46DDE909848146E5
:104550006FF00303206B03EB82021044089E20F0EF
:104560000707780707D0502080F31188BFF34F8FDB
:10457000BFF36F8FFEE7002561B1002023180A5CAE
:1045800083F834200A5C12B1401C1028F6D384F85A
:10459000435001E084F83450072E00D30626E6622B
:1045A000C4E91165201D00F03AFB04F1180000F089
:1045B00036FB2461C6F107006462A061E56484F8FB
:1045C000505052464946384600F088FA2060B8F10B
:1045D000000F01D0C8F80040BDE8F0872DE9F04792
:1045E0001E46DDE9089417460D00804615D0002CC4
:1045F00011D0FFF7ABFE04F11801C4F8008081E888
:104600006002201D00F00BFB002F04D014F8240FD3
:1046100040F004002070BDE8F087502080F311883E
:10462000BFF34F8FBFF36F8FFEE7000030B5114926
:1046300000E011460A688242FBD34B685C18844252
:1046400003D1406818444860084643681C189442E7
:1046500009D1084C183C2468A24209D052681A4477
:1046600042600A6812680260814200D0086030BD72
:104670000460F9E7D400002070B5002441600B4DC0
:104680000061914206D8D11A8269914206D2011D79
:10469000286907E09A4203D2994201D3012403E03A
:1046A000011DE86800F0BEFA204670BDA800002099
:1046B00010B5044600F0DAFAA06B28B15FF00004F0
:1046C00000F0F4FA204610BD0124F9E730B587B0B8
:1046D000394D67E00498002864DB069C606910B1DE
:1046E000201D00F067FA03A800F0D8F802460498ED
:1046F0000A2857D2DFE800F00505052D334A0505E5
:104700002D3394F8240040F0010084F8240005992A
:10471000A069059B01442046FFF7AEFF68B3216AFC
:104720002046884794F8240040073BD5002000909D
:104730000598A169002342181946204601F0A8FAFD
:10474000D8B9502080F31188BFF34F8FBFF36F8F1C
:10475000FEE714F8240F20F00100207022E094F806
:10476000240040F0010084F824000598A06128B1DD
:10477000811813462046FFF77FFF13E0502080F397
:104780001188BFF34F8FBFF36F8FFEE794F82400BB
:10479000810703D4204600F09DFA03E020F00100D9
:1047A00084F82400002204A9286800F07DFE002877
:1047B00090D107B030BD0000A80000202DE9FC41D9
:1047C0000F46054600F026FC01A800F067F80446F5
:1047D000019818B101F098F9BDE8FC81254EAFB100
:1047E00030690068D0B30027291B3A46306800F0D2
:1047F000F3FA01F089F90028EED11F494FF08050FB
:104800000860BFF34F8FBFF36F8FE5E7A542EBD88A
:1048100001F07AF9F0682746C068C468201D00F0EE
:10482000C9F994F82400410719D5A0692B4641190C
:104830003A462046FFF720FFA8B100200346014674
:1048400000902A46204601F023FA60B9502080F3F8
:104850001188BFF34F8FBFF36F8FFEE707E020F0A3
:10486000010084F82400216A20468847B4E7012724
:10487000BAE70000A800002004ED00E00648416B04
:10488000096829B1416BC968C96849688162704784
:104890004FF0FF31FAE700006C00002070B50546CC
:1048A00000F0FAFF064E0446B068844203D200F0DE
:1048B00009F8012000E0002028602046B46070BDA7
:1048C000A8000020F8B5194D20E0C068C46806684B
:1048D000201D00F06FF9216A2046884794F82400D3
:1048E000400713D5A0693044B04206D92461606006
:1048F000211DE86800F096F908E000200346014613
:1049000000903246204601F0C3F938B1E8680168EA
:104910000029DAD12969C5E90310F8BD502080F3D8
:104920001188BFF34F8FBFF36F8FFEE7A800002001
:1049300008484068401C4FF0500080F3118804D0B4
:10494000BFF34F8FBFF36F8FFEE7BFF34F8FBFF300
:104950006F8FFEE7DC000020074CE068016841B182
:10496000C0680021D0F80000FFF728FFFFF7AEFE77
:10497000F3E701210020F7E7A80000202DE9F0412E
:10498000044600F073F994F9455004F1240609E057
:10499000606A48B1304601F07DF808B100F06CFA69
:1049A0006D1E6DB2002DF3DC4FF0FF3684F84560CC
:1049B00000F07CF900F05AF994F9445004F1100722
:1049C00009E0206948B1384601F064F808B100F008
:1049D00053FA6D1E6DB2002DF3DC84F84460BDE81F
:1049E000F04100F063B900002DE9F04105460027D1
:1049F00000F010FB324E306808B9FFF737FD7069E0
:104A000005424ED1C5B3083568070ED005F0070042
:104A1000C0F108000544680707D0502080F31188D2
:104A2000BFF34F8FBFF36F8FFEE72DB370688542E2
:104A300037D82348183001460C6801E020460C4660
:104A40006168A94202D221680029F7D131688C42FD
:104A500027D007682168016060680837411B10296A
:104A60000FD96019420708D0502080F31188BFF396
:104A70004F8FBFF36F8FFEE713E041606560FFF774
:104A8000D5FD61687068401A7060B268904200D2CB
:104A9000B060706901430020C4E90001F068401C67
:104AA000F06001F031F8780707D0502080F31188CA
:104AB000BFF34F8FBFF36F8FFEE73846BDE8F0813D
:104AC000BC0000200449086818B10868826C521CB8
:104AD00082640868704700006C00002010B5031F56
:104AE0004FF080741C601B1F21F001011960191F19
:104AF000024B0B60143940380A6010BD3149000880
:104B000070B50D460646FBF7DDFD002404E0305D80
:104B100000F006F8641CE4B2AC42F8D370BD0000AB
:104B200001B56423012269460148FDF79BFA08BDDF
:104B3000340A0020014840687047000054000020FB
:104B40000149486070470000540000200148FCF70C
:104B5000BBBE0000CC0800200148FCF709BF0000E4
:104B6000CC080020064910B509686FF00100086103
:104B70000348FCF7D1FE03490120087010BD000076
:104B8000140900205400002010B50348FCF703FF6F
:104B900002490020087010BD1409002054000020B4
:104BA0000348007808B1FFF7EFBFFFF7DBBF000055
:104BB00054000020D0E9013201699A60D0E9012354
:104BC0005A604A68824201D182684A6000220261CA
:104BD0000868401E0860086870470000034B0360C7
:104BE00003F154000860802010607047F401002039
:104BF000044B036003F1540008604FF480701060B0
:104C0000704700004804002000F108014FF0FF3217
:104C1000C0E90112C16001610021016070470021FB
:104C20000161704730B50B685A1C02D000F10802D0
:104C300002E0026904E02246546825689D42FAD9E0
:104C400053684B6099608A60516008610168491C33
:104C5000016030BD42684A6093688B609368596018
:104C6000916008610168491C01607047502080F321
:104C70001188BFF34F8FBFF36F8F0A494868401CFC
:104C8000486001280CD10848006810F0FF0F07D0D9
:104C9000502080F31188BFF34F8FBFF36F8FFEE773
:104CA00070470000DC00002004ED00E0084948687F
:104CB00028B1401E486001D180F311887047502010
:104CC00080F31188BFF34F8FBFF36F8FFEE70000B3
:104CD000DC00002070B500282AD0164DA0F1080491
:104CE00060686969084207D1502080F31188BFF3DA
:104CF0004F8FBFF36F8FFEE722683AB1502080F3E9
:104D00001188BFF34F8FBFF36F8FFEE7884360605A
:104D100000F080F960686968084468602046FFF721
:104D200085FC2869401C2861BDE8704000F0ECBE9D
:104D300070BD0000BC0000204FF0E02000210161A8
:104D4000816105494FF47A720968B1FBF2F1491E9D
:104D500041610721016170476800002010B5FBF731
:104D600019FA114910280ED300F1E02090F8F00351
:104D70000A78904207D2502080F31188BFF34F8FFA
:104D8000BFF36F8FFEE709480068896800F4E060B0
:104D9000884207D9502080F31188BFF34F8FBFF3AB
:104DA0006F8FFEE710BD0000DC0000200CED00E07E
:104DB00010B5084B002200BF53F832401CB1521C02
:104DC000082AF9D310BD43F8321003EBC201486042
:104DD00010BD0000C40A002070B515460E460446FA
:104DE000FFF744FF94F944100020491C01D184F8D6
:104DF000440094F94510491C01D184F84500FFF79F
:104E000055FFA06B28B92A46314604F1240000F072
:104E100051F82046BDE87040FFF7B0BD10B5020064
:104E200014D00F48006B38B1502080F31188BFF3C5
:104E30004F8FBFF36F8FFEE700F0ECF800211046B4
:104E4000FFF7E4F900F060FE002807D105494FF0B4
:104E500080500860BFF34F8FBFF36F8F10BD00000D
:104E60006C00002004ED00E002490A6A0260C96893
:104E7000416070476C00002001490120C861704703
:104E80006C00002010B50C4650B109490968183172
:104E9000FFF7C8FE2046BDE810400121FFF7B6B974
:104EA000502080F31188BFF34F8FBFF36F8FFEE761
:104EB0006C00002070B514460D4668B10A490968B7
:104EC0001831FFF7C7FE0CB14FF0FF3521462846D9
:104ED000BDE87040FFF79AB9502080F31188BFF306
:104EE0004F8FBFF36F8FFEE76C00002070B504009A
:104EF00047D0A26CA2B1606C884200D30146E06A40
:104F000088423ED0012A3CD11E4D2A6894420FD1DE
:104F1000502080F31188BFF34F8FBFF36F8FFEE7F0
:104F2000502080F31188BFF34F8FBFF36F8FFEE7E0
:104F3000E162A269002A02DBC1F10701A161124E00
:104F400000EB8000616906EB8000814219D1201DD1
:104F5000FFF730FE012130B994F82C002A6901FADC
:104F600000F082432A61E06A2A6981401143296185
:104F700000EB800006EB8000211DBDE87040FFF7CC
:104F800069BE70BD6C000020040B002030B587B0F6
:104F90000024039405AA04A903A80494FFF71EFEA5
:104FA000DDE903010094CDE90110002315A11748A4
:104FB000059A00F038FC164D0028E8621FD000F07A
:104FC00037FE012809D0401C19D1502080F31188E8
:104FD000BFF34F8FBFF36F8FFEE7502080F3118830
:104FE000BFF34F8FBFF36F8F4FF0FF30A8620120E8
:104FF0006861EC6007B0BDE8304000F041B807B030
:1050000030BD000049444C4500000000B944000890
:105010006C0000200248016B491C016370470000CE
:105020006C0000201448016B11B10121C16170476F
:105030000021C1610169B1FA81F1C1F11F0101EBE8
:1050400081020E4951F822306BB101EB820101F16E
:1050500008034A6852684A609A4201D152684A601D
:10506000D16801607047502080F31188BFF34F8FE3
:10507000BFF36F8FFEE700006C000020040B0020E0
:105080001CB5264908780190FF20087008788DF833
:1050900000009DF800009DF8002000F0F000904214
:1050A00007D0502080F31188BFF34F8FBFF36F8F6D
:1050B000FEE79DF800001A4C00F050002070072019
:1050C000A06005E09DF8002052008DF80020401EF1
:1050D0009DF800201206F5D4A060032807D05020C8
:1050E00080F31188BFF34F8FBFF36F8FFEE74FF44C
:1050F0004070A060019808700A48016841F470018E
:105100000160016841F070410160FFF715FE002069
:105110006060FBF709F800201CBD000000E400E01F
:10512000DC00002020ED00E010B502460021012047
:1051300000F012F80446FFF7EFF9204610BD38B52D
:105140000B46002200901146012000F026F804468C
:10515000FFF7E2F9204638BDF8B517460E460500C0
:1051600013D005FB06F04830FFF73EFC04000AD0E0
:10517000002084F8460004F148023B4631462846A8
:105180000094FFF7D4F92046F8BD502080F3118831
:10519000BFF34F8FBFF36F8FFEE738B5049D18B193
:1051A00053B1CAB181B120E0502080F31188BFF320
:1051B0004F8FBFF36F8FFEE7502080F31188BFF34E
:1051C0004F8FBFF36F8FFEE7502080F31188BFF33E
:1051D0004F8FBFF36F8FFEE739B1502080F31188F6
:1051E000BFF34F8FBFF36F8FFEE748241C460123A8
:1051F00084F846302B460094FFF799F9204638BDD5
:1052000070B50D46040025D0FFF730FDD4E90F201E
:10521000216802FB0011A1600021A1632168616087
:105220000A46D4E90F01401E00FB0121E16021463E
:105230004FF0FF3001F8440F487004F110008DB1B9
:10524000FFF7E2FC04F12400FFF7DEFCFFF72EFD80
:10525000012070BD502080F31188BFF34F8FBFF342
:105260006F8FFEE721690029F0D000F013FC0028C1
:10527000ECD004494FF080500860BFF34F8FBFF36C
:105280006F8FE3E704ED00E02DE9FF4782B01D4694
:105290008A464FF00008040003D0BAF1000F08D08E
:1052A00011E0502080F31188BFF34F8FBFF36F8F51
:1052B000FEE7206C38B1502080F31188BFF34F8F88
:1052C000BFF36F8FFEE7022D0AD1E06B012807D0F4
:1052D000502080F31188BFF34F8FBFF36F8FFEE72D
:1052E00000F0CCFA3F4F4FF000094FF0805648B91C
:1052F000049838B1502080F31188BFF34F8FBFF36B
:105300006F8FFEE7FFF7B2FCA06BE16B884207D31B
:10531000022D05D00498D0B1B8F1000F1AD01EE0CC
:105320002A4651462046FFF750F8616A19B104F148
:10533000240000F0AFFB20B13E60BFF34F8FBFF3FE
:105340006F8FFFF7B3FC012006B0BDE8F087FFF7D1
:10535000ADFC22E06846FFF787FD4FF00108FFF73C
:10536000A5FCFFF757FEFFF781FC94F94400401CB1
:1053700001D184F8449094F94500401C01D184F88F
:105380004590FFF793FC04A9684600F0E5F930B1B9
:105390002046FFF7F3FA00F0B7FB0020D4E7FFF751
:1053A00065FCA06BE16B884213D1FFF77FFC04F131
:1053B00010000499FFF766FD2046FFF7DFFA00F0C2
:1053C000A3FB00289ED13E60BFF34F8FBFF36F8FCA
:1053D00098E7FFF76BFC2046FFF7D0FA00F094FB4C
:1053E00090E7000004ED00E02DE9F0471F469046ED
:1053F0008946040003D0B9F1000F08D011E0502015
:1054000080F31188BFF34F8FBFF36F8FFEE7206CDF
:1054100038B1502080F31188BFF34F8FBFF36F8FE7
:10542000FEE7022F0AD1E06B012807D0502080F35D
:105430001188BFF34F8FBFF36F8FFEE7FFF78EFC2E
:105440005020EFF3118680F31188BFF34F8FBFF325
:105450006F8FA06BE16B884206D3022F04D000202F
:1054600086F31188BDE8F08794F94550A06B3A4661
:1054700049462046FEF7A9FF681C04D06D1C84F83D
:1054800045500120ECE7606A0028FAD004F12400BE
:1054900000F000FB0028F4D0B8F1000FF1D001219A
:1054A000C8F80010EDE700002DE9F747002683B0AB
:1054B0008A46040003D0BAF1000F08D011E0502052
:1054C00080F31188BFF34F8FBFF36F8FFEE7206C1F
:1054D00038B1502080F31188BFF34F8FBFF36F8F27
:1054E000FEE700F0CBF9DFF8F4804FF000094FF051
:1054F000805748B9059838B1502080F31188BFF320
:105500004F8FBFF36F8FFEE7FFF7B0FBA56BC5B101
:1055100051462046FEF746FF6D1EA563206950B137
:1055200004F1100000F0B6FA28B1C8F80070BFF31B
:105530004F8FBFF36F8FFFF7B9FB012006B0BDE8B7
:10554000F087059808B11EB106E0FFF7AFFB27E032
:105550006846FFF789FC0126FFF7A8FBFFF75AFD15
:10556000FFF784FB94F94400401C01D184F8449077
:1055700094F94500401C01D184F84590FFF796FB53
:1055800005A9684600F0E8F8002820460AD0FFF791
:10559000F5F900F0B9FA2046FFF78AF80028B3D0F1
:1055A0000020CBE7FFF784F890B104F124000599BF
:1055B000FFF768FC2046FFF7E1F900F0A5FA0028A4
:1055C000A2D1C8F80070BFF34F8FBFF36F8F9BE776
:1055D0002046FFF7D3F900F097FA95E704ED00E0D5
:1055E0002DE9F343002683B00400354609D0206C32
:1055F00078B1502080F31188BFF34F8FBFF36F8FC6
:10560000FEE7502080F31188BFF34F8FBFF36F8FF9
:10561000FEE700F033F9DFF83C814FF000094FF06E
:10562000805748B9049838B1502080F31188BFF3EF
:105630004F8FBFF36F8FFEE7FFF718FBA06BC8B16A
:10564000401EA063206810B9FFF73CFAA0602069F3
:1056500050B104F1100000F01DFA28B1C8F8007034
:10566000BFF34F8FBFF36F8FFFF720FB012005B013
:10567000BDE8F083049808B166B10FE03DB1502059
:1056800080F31188BFF34F8FBFF36F8FFEE7FFF7F3
:105690000DFB5DE06846FFF7E7FB0126FFF706FB21
:1056A000FFF7B8FCFFF7E2FA94F94400401C01D17F
:1056B00084F8449094F94500401C01D184F8459049
:1056C000FFF7F4FA04A9684600F046F800282046DF
:1056D00012D0FFF753F900F017FA2046FEF7E8FF63
:1056E0000028A9D09DB3FFF7C1FA606A50B3206BC0
:1056F0000068C0F1070126E0FEF7DAFFE0B120689C
:1057000038B9FFF7B3FAA06800F07EF90546FFF755
:10571000CDFA04F124000499FFF7B4FB2046FFF70B
:105720002DF900F0F1F9002886D1C8F80070BFF318
:105730004F8FBFF36F8F7FE72046FFF71FF900F011
:10574000E3F979E70021A068FFF7D0FB9FE7FFE7C7
:1057500000208CE704ED00E02DE9F0410C46050047
:1057600011D0C4B1FFF782FA174BDA686E6820686F
:10577000911B471C17D02F681B6A9F4219D0964275
:1057800017D8012410E0502080F31188BFF34F8F09
:10579000BFF36F8FFEE7502080F31188BFF34F8F68
:1057A000BFF36F8FFEE70024FFF780FA2046BDE8C5
:1057B000F081884205D9401A20602846FFF754FB43
:1057C000F1E700202060DCE76C0000202DE9FF5F9E
:1057D0008346DDE90E87994616468A469000FFF714
:1057E00003F905001CD05420FFF7FEF8040014D084
:1057F0000020256384F85100CDE90240CDE90087FF
:105800004B46324651465846FEF79CFE2046FEF770
:1058100035FD012004B0BDE8F09F2846FFF75AFA95
:105820004FF0FF30F6E7F0B585B0DDE90B640A9D77
:10583000A6B1DCB1542700972663022684F8516094
:10584000002604AFCDE90246CDE90057FEF77AFE07
:105850002046FEF713FD049805B0F0BD502080F3FC
:105860001188BFF34F8FBFF36F8FFEE7502080F397
:105870001188BFF34F8FBFF36F8FFEE70548416973
:1058800019B1006B18B10020704701207047022049
:10589000704700006C0000200148C068704700009D
:1058A0006C0000202DE9F0412F4C0026206B28B120
:1058B000A069401CA0613046BDE8F081E5686D1C20
:1058C000E56013D1606B006838B1502080F3118817
:1058D000BFF34F8FBFF36F8FFEE7606BA16B616308
:1058E000A063206A401C2062FEF7C8FFA06ADFF8B0
:1058F0007C80854209D3606B0068A0B1606BC06892
:10590000C7687868854211D2A0622068C06A00EB3F
:10591000800158F82100012800D90126E0690028FB
:10592000C9D00126C7E74FF0FF30EDE7381DFFF77C
:1059300041F9B86A18B107F11800FFF73BF9F96AA5
:105940000120226988401043206101EB810108EBAE
:105950008100391DFFF77EF9F86A2168C96A88421B
:10596000C9D30126C7E700006C000020040B00200B
:1059700070B504004FF0000140D0214D28688442EA
:1059800007D0502080F31188BFF34F8FBFF36F8F84
:10599000FEE7A06C38B1401EA064636CE26A9A42D4
:1059A0002CD040B12AE0502080F31188BFF34F8FF4
:1059B000BFF36F8FFEE7201DFFF7FCF8114A0121AE
:1059C00050B9E06A00EB800352F8233023B92B6909
:1059D00001FA00F083432B61606CE062C0F10700C4
:1059E000A061E06A2B6981401943296100EB8000C6
:1059F00002EB8000211DFFF72DF90121084670BD43
:105A00006C000020040B002070B504004FF0000073
:105A100034D01E4DE16A2A68D26A91422FD2A06921
:105A2000002804DB2868C06AC0F10700A061184E96
:105A300001EB8101606906EB810188421AD1201DCA
:105A4000FFF7B8F8012130B994F82C002A6901FA5F
:105A500000F082432A612868C06AE0622A698140B6
:105A60001143296100EB800006EB8000211DFFF748
:105A7000F1F802E02868C06AE062012070BD616C44
:105A80002A68D26A9142F8D370BD00006C000020F1
:105A9000040B00202DE9F041C068C468ACB104F1EA
:105AA00018000746FFF786F8154D286B0126A0B1B0
:105AB00039461448FFF7CEF8E06A2968C96A884277
:105AC0001CD90120EE61BDE8F081502080F31188DF
:105AD000BFF34F8FBFF36F8FFEE7201DFFF76AF80C
