:020000040800F2
:10000000282200209D010008E7210008F91D0008B2
:10001000E5210008B9050008B92D0008000000001E
:1000200000000000000000000000000005010008C2
:10003000BB0500080000000049010008C1280008B5
:10004000B7010008B7010008B7010008B7010008B0
:10005000B7010008B7010008B7010008B7010008A0
:10006000B7010008B7010008B7010008B701000890
:10007000B7010008B7010008B7010008B701000880
:10008000B7010008B7010008B7010008B701000870
:10009000B7010008B7010008B7010008B701000860
:1000A000B7010008B7010008B7010008B701000850
:1000B0006929000875290008B7010008B701000880
:1000C000B7010008B7010008B7010008B701000830
:1000D000B7010008B70100083D2D0008B70100086E
:1000E000B7010008B7010008B7010008DFF810D019
:1000F00000F0A6F90048004701310008AFF3008086
:1001000028220020224B19680868B0E8F00F80F31D
:100110000988BFF36F8F4FF0000080F311884EF015
:100120000D0E70470000000006480068006880F36C
:10013000088862B661B6BFF34F8FBFF36F8F00DFE1
:1001400000BF00BF08ED00E0EFF30980BFF36F8F41
:100150000F4B1A6820E9F00F106008B54FF05000FF
:1001600080F31188BFF34F8FBFF36F8F03F00AFD49
:100170004FF0000080F31188BDE808401968086856
:10018000B0E8F00F80F30988BFF36F8F704700BFAE
:1001900058000020EFF305807047000006488047B4
:1001A00006480047FEE7FEE7FEE7FEE7FEE7FEE75C
:1001B000FEE7FEE7FEE7FEE765290008ED00000820
:1001C000202A04DB203A21FA02F00021704721FAAC
:1001D00002F3D040C2F12002914008431946704713
:1001E00040EA01039B0703D009E008C9121F08C0B9
:1001F000042AFAD203E011F8013B00F8013B521E39
:10020000F9D27047D2B201E000F8012B491EFBD2AF
:1002100070470022F6E710B513460A460446194611
:10022000FFF7F0FF204610BD2DE9FE4F81EA0304E1
:1002300004F0004421F0004100944FF0000B23F043
:10024000004350EA01045ED052EA03045BD0C3F3DA
:100250000A54C1F30A552C44A4F2F3340194A0FBD0
:100260000254C1F3130141F48011C3F3130343F4A7
:10027000801301FB024400FB034E840A970A44EA00
:10028000815447EA8357A4FB076802958D0A05FB52
:1002900007854FEA932C04FB0C542705029D4FEA77
:1002A000065847EA1637B5EB08056EEB070C870EC4
:1002B000920E47EA811742EA8312A7FB0201B6EBCE
:1002C0000B0164EB00042B0D43EA0C335E1844EB86
:1002D0001C50DA465146E7FB0201C5F313044FEA0E
:1002E0000B3343EA14534FEA0432019C43EA0603FA
:1002F000A4F10C040294009CCDE900B400F052F883
:1003000003B0BDE8F08F00200146F9E770B521F099
:10031000004303430CD0C1F30A550024D5EB040578
:1003200064EB0403D617AD1AB34102DB002001468B
:1003300070BD201841EB025170BD0EB540F2334143
:1003400002910021CDE900110A460B4600F02AF87F
:1003500003B000BDC1F30A5210B5C1F3130140F25E
:10036000FF3341F480119A4201DA002010BD40F2BF
:1003700033439A42A2F2334203DC5242FFF720FF9A
:1003800010BD904010BD10B5141E73F1000408DAC2
:10039000401C41F1000192185B411A4301D120F049
:1003A000010010BD2DE9F04D92469B4611B1B1FA06
:1003B00081F202E0B0FA80F22032904600F052F86A
:1003C00004460F4640EA0A0041EA0B0153465A46EA
:1003D000084313D0114653EA010019D0C8F1400276
:1003E0005046FFF7EDFE05460E465046594642463A
:1003F00000F038F8084305D0012004E020463946D3
:10040000BDE8F08D0020054346EAE0762C433743F3
:100410000A986305E40AA0EB08000022FD0A44EAFA
:1004200047540A3002D500200146E9E701051019BA
:100430006941DDE9084500196941BDE8F04DA2E7D1
:10044000064C074D06E0E06840F0010394E8070021
:1004500098471034AC42F6D3FFF74CFE30500008FA
:1004600050500008202A04DB203A00FA02F1002054
:1004700070479140C2F1200320FA03F319439040E2
:100480007047000070B5044600688168C943C90719
:1004900017D1816821F00101816000F0D7FB05468A
:1004A0000AE000BF00F0D2FB401B022804D92068FC
:1004B0008068C043C00706D020688068C043C0077A
:1004C000F0D0002070BDA06A40F01000A062E06A89
:1004D00040F00100E062012070BD0000F8B5002688
:1004E0000446009600688168C943C9072DD0816819
:1004F00041F001018160164816490068B0FBF1F037
:1005000000E0401E00900028FBD100F09FFB054654
:1005100016E000BF00F09AFB401B022810D92068AB
:100520008068C043C0070BD0A06A40F01000A062F2
:10053000E06A40F00100E06284F824600120F8BD28
:1005400020688068C043C007E4D10020F8BD0000E7
:100550005400002040420F000EB58DE80E006946A1
:1005600000F02EF80EBD000010B501460723012251
:100570000748FFF7F1FF064800F0FCF90A2104489C
:1005800000F05AF9024800F099F880B210BD00005E
:100590009803002010B501F009FE06480168CA68FA
:1005A00042F02002CA600068C16841F01001C160D9
:1005B00010BD0000E8040020FEE7704772B6FEE7B9
:1005C000F8B50024009490F824202546012A12D082
:1005D000012280F824204A681F23072A0DD20668CA
:1005E000776B521E02EB820293409F430B6893404D
:1005F0001F43776319E00220F8BD06680D2A0AD26E
:10060000376BD21F02EB820293409F430B689340EB
:100610001F43376309E0F76A0D3A02EB8202934009
:100620009F430B6893401F43F7620A6807230668DD
:100630000A2A0AD3F7680A3A02EB420293409F4320
:100640008B6893401F43F76008E0376902EB420272
:1006500093409F438B6893401F4337610A68102A79
:1006600001D0112A20D1124B02689A4217D1936807
:100670001B0219D4936843F400039360096810299E
:1006800012D10C490C4A0968B1FBF2F101EB81016E
:10069000490000E0491E00910029FBD104E0816A75
:1006A00041F020018162012480F824502046F8BDE9
:1006B000002401405400002040420F000068C06C3C
:1006C000704700002DE9F0414FF0000704003D465F
:1006D0007ED0A06A002628B9E66284F8246020460D
:1006E00000F07EF82046FFF7CDFEA16AC90600D4CF
:1006F00020B1A06A40F01000A06269E0A16A21F474
:10070000885141F00201A1626268E169237B0A43DA
:1007100047EA43010A43A1684FF48077B94209D000
:10072000012907D05FF0000194F814C0BCF1010F5B
:1007300002D00AE03946F7E7F3B1A36A43F0200399
:10074000A362E36A43F00103E3622368D3F804C0C1
:100750002CF4694C4CEA010CC3F804C021688B6886
:10076000DFF870C003EA0C0313438B60A168B94241
:100770000BD0012909D00CE0DFF85CC0A3690CEBB9
:1007800043330B4343F40061DFE7218A0D05A5F5F0
:1007900080152168CB6A23F470032B43CB62216858
:1007A00089680E4B1940914208D1E662A16A21F096
:1007B000020141F00101A162BDE8F081A06A20F0D0
:1007C000020040F01000A062E06A40F00100E06228
:1007D0000120F1E7FDF7E1FF00E0FFFFFE0E1FFF44
:1007E00000B585B00021009101910291039100684C
:1007F0000E49884218D10E48816941F40071816127
:10080000816901F400710491816941F00401816101
:100810008069694600F004000490202000900320C5
:100820000190044800F018F905B000BD0024014013
:1008300000100240000801402DE9F84300270D4652
:100840000446009700F002FA804620688168C905D6
:1008500008D5A06A40F02000A06284F8247001202E
:10086000BDE8F8834168C90503D4C06A10F4700F6D
:100870002AD0022000F0BAFA3B490968B1FBF0F631
:100880002068036939490B424FEA61014FEAA1121E
:100890001FD1C3684FEA611C13EA0C0F19D1036919
:1008A0000B4225D1C068104222D1142023E0681CDD
:1008B0000AD02DB100F0CAF9A0EB0800A84203D974
:1008C00020680068800725D5206800688007EED57D
:1008D0002DE003690B4202D1C168114206D00269C2
:1008E00023490A4206D1C068084203D1542002E0DD
:1008F000292000E0FC204643009816E0681C11D037
:100900002DB100F0A3F9A0EB0800A8420AD9009885
:10091000B04207D2A06A40F00400A06284F82470BC
:1009200003209DE70098401C0090B042E6D3216868
:100930006FF012000860A06A40F40070A0622068A6
:100940008068C0F3424007280CD1207B50B9A06AD0
:1009500020F48070A062A06AC00403D4A06A40F0B2
:100960000100A06200207BE754000020244992246B
:100970004992240070B5044690F8240001280DD057
:10098000012084F824002046FFF7A8FD02004FF064
:10099000000005D084F82400104670BD022070BD10
:1009A000A16A40F20123994341F48071A1621F4D75
:1009B00023681F49AB4218D10E6816F4702F14D06B
:1009C000A66A46F48016A6620E68760505D5A66A64
:1009D00026F4005646F48056A662A66AF6040AD5A6
:1009E000E66A26F00606E66206E0A66A26F48016A7
:1009F000A6625E68E9E7E06284F824006FF0020016
:100A0000186020688368C3F34243072B05D1A842CE
:100A100008D1096811F4702F04D0816841F4801165
:100A20008160B9E7816841F4A001F9E7002801403D
:100A30000424014070B5044600F008F90546601C26
:100A400002D004480078044400F000F9401BA042A2
:100A5000FAD370BD480000202DE9F84FDFF8B891B7
:100A60000024A9F1040B23460F2709F1040AABF176
:100A7000040EC9E00125A5402A40AA427DD1674E57
:100A8000D1F804C0ACEB0608B44532D014DCBCF19C
:100A9000030F3AD009DCBCF1000F2AD0BCF1010FE2
:100AA0001CD0BCF1020F31D11DE0BCF1110F17D0E9
:100AB000BCF1120F2AD119E0B8F5881F19D006DC55
:100AC000B8F5803F15D0B8F5801F1FD111E0B8F5FB
:100AD000001F0ED0B8F5041F18D10AE0CB6815E04E
:100AE000CB681B1D12E0CB6808330FE0CB680C33DA
:100AF0000CE08B682BB1012B4FF0080303D045614C
:100B000004E0042302E0056100E00023FF2A01D88D
:100B1000064601E000F104064FEA840501D9A5F17B
:100B20002005D6F8008007FA05FC28EA0C0803FA2D
:100B300005F548EA0508C6F800804D68ED0062D565
:100B4000374DAE6946F00106AE61AD6924F003068B
:100B500005F001050095334D06EB050CDCF8085057
:100B6000A607360F07FA06F825EA0805DFF8B88069
:100B7000404503D14FF0000817E044E0DFF8AC80B7
:100B8000404502D14FF001080FE0DFF8A480404556
:100B900002D14FF0020808E0DFF89880404502D10A
:100BA0004FF0030801E04FF0040808FA06F848EA9D
:100BB0000508CCF808804D68D9F80060ED024D4674
:100BC00001D5164300E096432E604D68DAF80060C8
:100BD000AD02554601D5164300E096432E604D68A0
:100BE000DBF80060AD035D4601D5164300E0964397
:100BF0002E604D68DEF80060ED03754601D51643A2
:100C000000E096432E60641C0D682A46E5407FF4A0
:100C100031AFBDE8F88F000008040140000011105A
:100C2000001002400000014000080140000C01409B
:100C300000100140001401408068084000D00120ED
:100C400070470AB1016170470904FBE701488068F9
:100C50007047000048000020024881680278114473
:100C60008160704748000020074810B5016841F0D6
:100C700010010160032000F0A7F80F2000F006F833
:100C800000F050F8002010BD0020024030B50546AD
:100C9000204887B0C16941F00101C161C06906A95E
:100CA00000F00100009001A800F0FEF90498B8B12E
:100CB00000F01AFA400018494FF08042B0FBF1F101
:100CC0001648491E0260416040F2E7320021C0E947
:100CD00003218160816100F013FC040003D015E062
:100CE00000F002FAE7E70D4800F098FC04000DD18F
:100CF0001C2000F03BF8102D07D2002229461C20B2
:100D000000F042F80648056000E0012407B02046E4
:100D100030BD00000010024040420F0030050020AE
:100D20004C0000200F4808B5816941F00101816144
:100D3000816901F001010091C16941F08051C161F7
:100D4000C069002200F0805000900F21901E00F03A
:100D50001BF80548416821F0E06141F000714160F5
:100D600008BD00000010024000000140002809DB1F
:100D700000F01F02012191404009800000F1E020B5
:100D8000C0F8001170470000F0B40E4B1B680C4611
:100D9000C3F30223C3F10705042D00D90425191D4F
:100DA000072901D2002300E0DB1E012606FA05F127
:100DB000491E214099409E40761E16403143F0BCAA
:100DC00002F00CB80CED00E0064900F007020868DC
:100DD0004FF6FF03184040EA0220034A1043086020
:100DE000704700000CED00E00000FA0510B5014668
:100DF0000020234C012922D0022939D010291DD1ED
:100E000061682268D20119D51E48C1F38342C90323
:100E1000805C0AD561681B4AC1F34041921E515C57
:100E2000194AB2FBF1F1484301E0184948436168AF
:100E3000490203D440000321B0FBF1F010BD226A47
:100E4000C2F30121012903D1920701D5C80310BDC6
:100E5000022905D1626A920702D549F6404010BDC9
:100E60000329FCD121688903F9D54FF2244010BD34
:100E700000F04AF96168C1F38131491C4900DBE7A0
:100E800000100240B44F000800127A0000093D0033
:100E90002DE9F84305460078354CC00754D0E06989
:100EA0000026C00008D4E06940F08050E061E069AD
:100EB000012600F0805000902E480168C90512D428
:100EC0000168804641F480710160FFF7BFFE07466C
:100ED00005E000BFFFF7BAFEC01B642823D8D8F88E
:100EE0000000C005F6D5206A10F4407021D0A98812
:100EF00001F4407181421CD0206A1F49012220F474
:100F000040700A6000220A602062C00711D0FFF71B
:100F10009DFE074641F2883808E000BFFFF796FEC5
:100F2000C11B414502D90320BDE8F883206A800730
:100F3000F4D5206A696820F44070084320621EB12D
:100F4000E06920F08050E0612878800705D560686E
:100F5000A96820F44040084360602878C00605D5A1
:100F60006068E96820F48000084360600020DBE7E7
:100F70000010024000700040400442422DE9F0475A
:100F80000F46050061D0434E306800F00700B842BC
:100F900009D2306820F0070038433060306800F034
:100FA0000700B84251D128683B4C810712D5400751
:100FB00003D5606840F4E06060602878000703D5DE
:100FC000606840F4605060606068A96820F0F000DC
:100FD000084360602878C00728D06868012810D0CE
:100FE0002168022810D0890700292EDA616821F0D3
:100FF000030101436160FFF729FE804641F2883911
:101000000DE021688903EFE78901EDE7FFF71EFE98
:10101000A0EB0801494502D90320BDE8F0876068CC
:10102000696800F00C00B0EB810FEFD1306800F080
:101030000700B8420BD9306820F007003843306011
:10104000306800F00700B84201D00120E5E72878B9
:10105000400705D56068E96820F4E06008436060F7
:101060002878000706D56068296920F4605040EAB6
:10107000C100606000F058F86168084AC1F30311CC
:10108000515CC8400649086006480068FFF7FEFD4D
:101090000020C2E70020024000100240C44F0008B8
:1010A000540000204C0000200F2202600C4A5368BC
:1010B00003F003034360536803F0F0038360536855
:1010C00003F4E063C36052684FF4E06303EAD202C2
:1010D00002610448006800F00700086070470000E3
:1010E0000010024000200240044805490068496899
:1010F000044AC1F30221515CC840704754000020EB
:1011000000100240D44F00080448054900684968AF
:10111000044AC1F3C221515CC8407047540000200A
:1011200000100240D44F00080E4A51680E4801F0EA
:101130000C03042B11D0082B0FD10C48C1F38343AF
:10114000C903C05C0AD55168084AC1F34041921EE8
:10115000515C054A5043B0FBF1F0704704494843E5
:10116000704700000010024000127A00A24F0008F1
:1011700000093D002DE9F84F040070D02078C04DE3
:10118000C00749D06868C0F38100012807D06868AB
:10119000C0F38100022809D16868C00306D5286819
:1011A000800339D560680028E7D035E06068B0F585
:1011B000803F0BD010B1B0F5A02F11D0286820F4DB
:1011C00080302860286820F4802002E0286840F4FD
:1011D00080302860606890B1FFF738FD06460AE06D
:1011E000286840F480202860F0E700BFFFF72EFD5C
:1011F000801B642873D828688003F7D50CE0FFF7BC
:1012000025FD064605E000BFFFF720FD801B642892
:10121000F0D828688003F7D420789A4E80074FF0E2
:1012200001094FF0000839D5686810F00C0F07D09D
:101230006868C0F38100022809D16868C00306D439
:101240002868800714D52069012808D110E020699A
:10125000B0B1C6F80090FFF7F9FC074605E00AE1D7
:10126000FFF7F4FCC01B0228C4D828688007F7D514
:101270002868616920F0F80040EAC10028600DE0AC
:10128000C6F80080FFF7E2FC074604E0FFF7DEFC4B
:10129000C01B022823D828688007F7D420780007CD
:1012A0002CD57948A169D9B1C0F80090FFF7CEFCE0
:1012B000074604E0FFF7CAFCC01B02280FD8686A83
:1012C0008007F7D571484FF4FA510068B0FBF1F090
:1012D000009000BF0098411E0091FAD20EE080E01D
:1012E000C0F80080FFF7B2FC074604E0FFF7AEFC51
:1012F000C01B022875D8686A8007F7D42078400799
:1013000060D5E8690027C00008D4E86940F0805043
:10131000E861E869012700F0805000905C480168AE
:10132000C90513D40168834641F480710160FFF759
:101330008DFC824606E000BFFFF788FCA0EB0A00A8
:1013400064284ED8DBF80000C005F5D5E068012818
:101350000AD008B1052813D0286A20F001002862BD
:10136000286A20F0040002E0286A40F001002862A8
:10137000E06841F2883B98B1FFF768FC82460BE0D9
:10138000286A40F004002862EEE700BFFFF75EFC29
:10139000A0EB0A0159455AD8286A8007F6D50CE017
:1013A000FFF754FC824605E0FFF750FCA0EB0A0172
:1013B00059454CD8286A8007F6D41FB1E86920F057
:1013C0008050E861E06988B36968C1F3810102294E
:1013D00044D00228C6F8608004D0FFF737FC0446EA
:1013E00038E034E0FFF732FC074604E0FFF72EFC5C
:1013F000C01B02282BD828688001F7D4206AB0F5DA
:10140000803F05D16868A16820F400300843686017
:10141000D4E908010843696821F47411084368603D
:10142000C6F86090FFF712FC044606E025E000BF16
:10143000FFF70CFC001B022809D828688001F7D5AB
:101440001BE000BFFFF702FC001B022802D90320AB
:10145000BDE8F88F28688001F4D40EE00128F7D0A9
:101460006868226A00F48031914204D1616A00F414
:101470007010884201D00120EAE70020E8E7000070
:10148000001002400000424280044242540000200A
:10149000007000407047704770B590F83C20012AFA
:1014A00026D0012480F83C40022280F83D200368C9
:1014B0005A689D6822F070060A6832435A600D4BE4
:1014C00002689A4208D0B2F1804F05D00A4B9A4286
:1014D00002D00A4B9A4204D1496825F0800319438F
:1014E000916080F83D40002180F83C10084670BDB6
:1014F000022070BD002C01400004004000080040A4
:1015000010B5040003D094F83D0010B107E00120AD
:1015100010BD002084F83C00204600F01FF8022097
:1015200084F83D00211D206801F02AFA012084F88A
:10153000460084F83E0084F83F0084F8400084F8B8
:10154000410084F8420084F8430084F8440084F8A1
:10155000450084F83D00002010BD000008B5174A82
:1015600001681748914207D1816941F400618161A6
:10157000806900F400601EE0124A914211D1C169F5
:1015800041F00201C161C069002200F00200009038
:1015900005211D20FFF7F8FBBDE808401D20FFF7DF
:1015A000E5BB094A914207D1C16941F00401C1611B
:1015B000C06900F00400009008BD0000002C01404C
:1015C00000100240000400400008004090F83D1068
:1015D000012901D001207047022180F83D100068E8
:1015E0000B49884208D0B0F1804F05D009498842A4
:1015F00002D00949884204D1816801F00701062917
:1016000003D0016841F00101016000207047000033
:10161000002C0140000400400008004090F83D10FC
:10162000012901D001207047022180F83D10016896
:10163000CA6842F00102CA6000680B49884208D0BB
:10164000B0F1804F05D00949884202D0084988424C
:1016500004D1816801F00701062903D0016841F037
:101660000101016000207047002C0140000400408F
:101670000008004001680A6A41F211131A4207D1BA
:101680000A6A9B101A4203D10A6822F001020A601A
:10169000012180F83D10002070470168CA6822F0DF
:1016A0000102CA6001680A6A41F211131A4207D1A5
:1016B0000A6A9B101A4203D10A6822F001020A60EA
:1016C000012180F83D100020704770B5044690F865
:1016D0003C000025012817D0012684F83C60022038
:1016E00084F83D002068826822F0770222F47F426D
:1016F00082600868502838D00DDC20284FD005DCE7
:1017000090B3102811D14AE0022070BD302846D095
:1017100040280AD13BE060282FD070280DD0B0F5CA
:10172000805F03D0B0F5005F12D0012584F83D60E2
:10173000002084F83C00284670BDCB68D1E9012127
:10174000206801F066F92068816841F0770109E0BE
:10175000CB68D1E90121206801F05BF9206881683C
:1017600041F480418160E1E719E0CA684968206876
:1017700001F004FA5021206806E0CA684968206830
:1017800001F00DFA6021206801F04DF9CEE7CA683A
:101790004968206801F0F2F940212068F4E72268E6
:1017A00001461046F0E770472DE9F0410446006815
:1017B000C66805694FF00007A90713D5B10711D511
:1017C000F91E01610120207720688069800720468A
:1017D00002D0FFF7E8FF04E000F0A6F8204600F092
:1017E00038F92777680716D5700714D521686FF088
:1017F00004000861022020772068806910F4407F8F
:10180000204602D0FFF7CFFF04E000F08DF820461D
:1018100000F01FF92777280715D5300713D5216861
:101820006FF008000861042020772068C0698007F5
:10183000204602D0FFF7B7FF04E000F075F820461D
:1018400000F007F92777E80616D5F00614D52168C9
:101850006FF010000861082020772068C06910F43C
:10186000407F204602D0FFF79EFF04E000F05CF8C6
:10187000204600F0EEF82777E80708D0F00706D0FA
:1018800021686FF001000861204600F031F9280658
:1018900008D5300606D521686FF080000861204623
:1018A000FFF7F8FD680608D5700606D521686FF0C9
:1018B00040000861204600F031F9A8060AD5B006BC
:1018C00008D521686FF0200008612046BDE8F0418E
:1018D000FFF7E1BDBDE8F08100B585B000210091C2
:1018E00001910291039100680C49884213D10C4880
:1018F000816941F0080181618069694600F0080052
:1019000004904FF480700090022001900320039017
:101910000448FFF7A1F805B000BD00000008004032
:1019200000100240000C0140704770B5044690F86A
:101930003C0000260D4601280FD0012084F83C0011
:101940006AB1042A1DD0082A2FD00C2A3FD00126C4
:10195000002084F83C00304670BD022070BD206835
:1019600001F06AF82068816941F00801816120680E
:10197000816921F004018161206881692A6911432C
:1019800011E0206801F080F82068816941F400616D
:1019900081612068816921F48061816120688169A9
:1019A0002A6941EA02218161D2E7206801F098F8B2
:1019B0002068C16941F00801C1612068C16921F056
:1019C0000401C1612068C1692A69114311E02068DE
:1019D00001F0B2F82068C16941F40061C16120687A
:1019E000C16921F48061C1612068C1692A6941EA45
:1019F0000221C161ACE710B5040003D094F83D00AA
:101A000010B107E0012010BD002084F83C00204602
:101A100000F01EF8022084F83D00211D206800F02F
:101A2000AFFF012084F8460084F83E0084F83F00B0
:101A300084F8400084F8410084F8420084F84300B0
:101A400084F8440084F8450084F83D00002010BD6F
:101A50007047704710B50446022249B104290ED0E0
:101A6000082913D094F84100012816D0012010BD98
:101A700094F83E000128F9D184F83E200FE094F854
:101A80003F000128F2D184F83F2008E094F840009C
:101A90000128EBD184F8402001E084F841200122A4
:101AA000206800F0A9FF0F492068884203D1426CEA
:101AB00042F4004242642068884208D0B0F1804F6E
:101AC00005D00949884202D00849884204D181687A
:101AD00001F00701062903D0016841F0010101600E
:101AE000002010BD002C0140000400400008004010
:101AF00010B504460068B0F1804F01D1FFF7ACF893
:101B000004492068884203D103480168491C0160E8
:101B100010BD00000004004044000020704770B574
:101B2000040004D094F84100002510B106E0012023
:101B300070BD84F84050204600F024F8242084F83A
:101B400041002068C16821F40051C160204601F0C5
:101B50005FF82068016921F49041016120684169C2
:101B600021F02A0141612068C16841F40051C1603F
:101B70006564202084F8410084F8420065630020F9
:101B800070BD000070B586B00024009401940294EA
:101B900003942B4E03682B49022003222A4DB342A3
:101BA00021D18B6943F480438B618B6903F48043BB
:101BB00004938B6943F004038B618969039201F0FC
:101BC000040104910102CDE9001069462846FEF7A0
:101BD00043FF2815CDE90004694628460294FEF724
:101BE0003BFF06B070BD194EB342FAD1CB6943F446
:101BF0000033CB61CB6903F4003304938B6943F06A
:101C000004038B618969039201F0040104910421AA
:101C1000CDE9001069462846FEF71EFF0820CDE9F1
:101C20000004694628460294FEF716FF00220521AB
:101C30002620FFF7A9F82620FFF798F8D1E7000043
:101C400000380140001002400008014000440040FC
:101C50002DE9F84F044690F842009A4616460D4684
:101C6000202802D00220BDE8F88FB5B1AEB1002027
:101C70006064222184F842102063FEF7E7FFA68506
:101C80008146E685A0684FF480582027404501D161
:101C9000206920B12E46002529E00120E3E7002637
:101CA00025E04B46002220212046CDF800A001F07F
:101CB0000BF818B184F842700320D4E726B1A0686D
:101CC00040451AD038B108E020684068C0F30800E9
:101CD00025F8020B08E0206978B12068406800F020
:101CE0007F0000BF06F8010BE08D401EE085E08D0F
:101CF0000028D6D184F84270B5E720684068F1E743
:101D00002DE9F843044690F84100984616460D46E2
:101D1000202802D00220BDE8F88385B17EB10020E2
:101D20006064212084F84100FEF790FFA68481467C
:101D3000E684A0682027B0F5805F02D003E0012090
:101D4000E9E7206910B12E4600250EE000260CE0E0
:101D50008021204600F0B8FFA8B9C6B116F8010BE3
:101D600021684860E08C401EE084E08C4B464FF0D8
:101D70000002CDF800800028EAD14FF04001204653
:101D800000F0A2FF40B184F841700320C3E735F8AA
:101D9000020BC0F30800E3E784F841700020BAE7C3
:101DA00010B500F031F9BDE8104000F0C3B80000F4
:101DB00070B50F4D4FF40064002221462846FEF70F
:101DC00040FF002261002846FEF73BFF012221462A
:101DD0002846FEF736FF1220FEF72CFE0022214691
:101DE0002846FEF72EFF034900200968486270BDAF
:101DF00000080140C8030020FEE700003EB50024B3
:101E000011480094019402940E49846001600473A7
:101E10000475012505614FF460214460C161FEF73E
:101E200051FC08B1FEF7CAFB0520CDE90005694663
:101E300002940548FEF7C4FB002801D0FEF7BEFB64
:101E40003EBD0000002401409803002010B5BEB044
:101E500000203C903D903CA801F0A9F9334C344B54
:101E60000DF1E00CA0620FCB8CE80F00002138A828
:101E700001F08AF92E4960621C2210316846FEF793
:101E8000AFF90021684601F09AF9294960601C22E7
:101E90002C3107A8FEF7A4F9002107A801F08FF95B
:101EA0002349A0601C2248310EA8FEF799F90021B1
:101EB0000EA801F084F91E49E0601C22643115A8C7
:101EC000FEF78EF9002115A801F079F91849206173
:101ED0001C2280311CA8FEF783F900211CA801F008
:101EE0006EF9134960611C229C3123A8FEF778F932
:101EF000002123A801F063F90D49A0611C22B8312B
:101F00002AA8FEF76DF900212AA801F058F908491E
:101F1000E0611C22D43131A8FEF762F9002131A81A
:101F200001F04DF920623EB010BD00001400002009
:101F3000B04E00082DE9F04385B000252F480095EC
:101F4000019502950395816941F0200181618169C4
:101F500001F020010491816941F0040181618169EE
:101F600001F004010491816941F0080181618069F7
:101F7000DFF88C9000F00800049001224FF4035128
:101F80004846FEF75EFEDFF87C804FF400670022D3
:101F900039464046FEF755FE41F2C300CDE9000543
:101FA0000124694602944046FEF756FD2003CDE920
:101FB0000005694602944846FEF74EFD6003CDE9F0
:101FC00000040326CDE9024669464846FEF744FD73
:101FD000CDE90074CDE9024669464046FEF73CFD76
:101FE000C020009001AA112082E86100694648469D
:101FF000FEF732FD05B0BDE8F0830000001002409E
:10200000000C01400008014010B586B000241748BC
:10201000009401940294039404941349059401607C
:102020004721C0E901144FF6FF71C0E90314446170
:102030008461FFF765FA08B1FEF7C0FA4FF48050EB
:10204000009069460948FFF740FB08B1FEF7B6FA71
:10205000049404A905480594FFF71EFA002801D04E
:10206000FEF7ACFA06B010BD002C0140C8030020FA
:1020700010B586B00024174800940194029403948C
:10208000049413490594016041F61F41C0E901140D
:1020900042F20F71C0E903148461FFF731FA08B10D
:1020A000FEF78CFA4FF48050009069460948FFF71C
:1020B0000CFB08B1FEF782FA049404A905480594C4
:1020C000FFF7EAF9002801D0FEF778FA06B010BD54
:1020D000000400401004002010B58EB000240794C6
:1020E000089409940A940B941C2168460C94FEF7FA
:1020F00090F81F481D49016041F61F41C0E90114D5
:102100006321C0E903148461FFF7FAF908B1FEF70F
:1021100055FA4FF48050079007A91548FFF7D5FAF4
:1021200008B1FEF74BFA1248FFF765FC08B1FEF75D
:1021300045FA0B940BA90E480C94FFF7ADF908B1C2
:10214000FEF73CFA6020CDE900040220029008224C
:10215000694604940648FFF7E8FB08B1FEF72EFA3B
:102160000348FFF7B9FB0EB010BD000000080040A7
:10217000580400200C4810B50A4901604FF416516C
:102180004160002181600C22C160C0E904128161BC
:10219000C161FFF7C4FC002803D0BDE81040FEF782
:1021A0000DBA10BD00380140A00400200C4810B545
:1021B0000A4901604FF416514160002181600C22F0
:1021C000C160C0E904128161C161FFF7A8FC002869
:1021D00003D0BDE81040FEF7F1B910BD0044004047
:1021E000E8040020FEE7FEE770B500240021204649
:1021F00000F0D7F80025002000F0C0F96D1CEDB20A
:10220000802DF8D3641CE4B2082CEFD370BD00001D
:1022100010B5FFF78FFE064C012240212046FEF745
:1022200010FD20460122BDE810408021FEF709BDC7
:10223000000C01402DE9F0410024124E0746802594
:1022400025FA04F23A4080213046FEF7FAFC0122DA
:1022500040213046FEF7F5FC002240213046FEF7D3
:10226000F0FC641CE4B2082CEAD301224021304681
:10227000FEF7E7FC3046BDE8F04100224021FEF7C2
:10228000E0BC0000000C014010B50B4C0122802185
:102290002046FEF7D6FC012240212046FEF7D1FC65
:1022A000002280212046FEF7CCFC20460022BDE81B
:1022B00010404021FEF7C5BC000C014010B5094C90
:1022C000002280212046FEF7BCFC0122402120464E
:1022D000FEF7B7FC20460122BDE810408021FEF742
:1022E000B0BC0000000C014010B500204FF47A7221
:1022F0000021491C9142FCD3401C9042F8D3FFF7C7
:1023000087FFAE2000F029F9D52000F026F98020C3
:1023100000F023F9A82000F020F93F2000F01DF97B
:10232000D32000F01AF9002000F017F9402000F047
:1023300014F9A12000F011F9C82000F00EF9DA20FC
:1023400000F00BF9122000F008F9812000F005F9E7
:10235000CF2000F002F9D92000F0FFF8F12000F0C2
:10236000FCF8DB2000F0F9F8302000F0F6F8A420AB
:1023700000F0F3F8A62000F0F0F88D2000F0EDF862
:10238000142000F0EAF8AF2000F0E7F8BDE81040B4
:10239000FFF72ABF0246012000E05043491EFCD24D
:1023A000704710B50C4640F0B00000F0D6F8102091
:1023B00040EA141000F0D1F804F00F00BDE810401E
:1023C00000F0CBB82DE9F0410746CE004000083EB2
:1023D000801E15464FF0FF38F1B2C0B2FFF7E1FFA3
:1023E0001148002400EB05152819A0F5805090F83D
:1023F000000E00F0C3F8641CE4B2082CF4D308EB20
:102400004700F1B2C0B2FFF7CCFF00242819A0F5B5
:10241000805090F8080E00F0B1F8641CE4B2082C6B
:10242000F4D3BDE8F0810000C04800082DE9F04178
:102430000746CE004000083E801E15464FF0FF388C
:10244000F1B2C0B2FFF7ADFF0D48002400EB451517
:10245000285D00F093F8641CE4B2102CF8D308EB6C
:102460004700F1B2C0B2FFF79CFF00242819007C9E
:1024700000F084F8641CE4B2102CF7D3BDE8F081BE
:10248000604600082DE9F04700241D4616468846A0
:1024900081460A2713E0291B0A20491EFFF77AFF0D
:1024A000B6FBF0F0B0FBF7F107FB110208EB0400FC
:1024B000C1B248463032FFF785FF641CE4B2AC423B
:1024C000E9D3BDE8F0872DE9F04115460E460746F1
:1024D000002406E03019C1B23846FFF773FF641CD0
:1024E000E4B22A5D002AF5D1BDE8F08110B5FFF70E
:1024F0007BFE002202210120FFF798FF0122042128
:102500001046FFF793FF3A2206210120FFF75AFFFA
:1025100002210B220846FFF789FF0C22042102202A
:10252000FFF784FF3A2206210220FFF74BFF092222
:1025300002210320FFF77AFF0A2204210320FFF77C
:1025400075FF112202210420FFF770FF12220421DF
:10255000BDE810400846FFF769BF10B50446FFF715
:1025600093FE7820FFF766FE0020FFF763FE20460B
:10257000FFF760FEBDE81040FFF7A0BE10B50446AF
:10258000FFF782FE7820FFF755FE4020FFF752FE4E
:102590002046FFF74FFEBDE81040FFF78FBE00005A
:1025A000164C4FF0FF36A078022823D13146A06A9E
:1025B00001F066FD00F0F8FC002305461A461946B6
:1025C000A06A01F011FC681CC0B2032D07D230B123
:1025D000012807D0022808D003280BD108E000F01A
:1025E00079FD07E000F06AFD04E000F04FFD01E036
:1025F00000F058FD0A2000F0BBFDD4E714000020D5
:1026000001252E4600270C4C00F0D4FC2070012838
:1026100009D0677001F0FEF8012500F06BFC0A207C
:1026200000F0A6FDF0E72DB1002001F0CFF801F099
:10263000DFF800256670F2E71400002008B50025D9
:10264000134C8DF800506078A8B100F07BFCFDF7CA
:1026500081FE8DF80000002314226946606A01F0B3
:10266000C3FB9DF800000A2802D200F04BFC0AE0F0
:1026700000F040FC07E08DF800500023142269466A
:10268000606A01F0B1FB0A2000F072FDDBE7000098
:102690001400002008B50020354C8DF80000E078CB
:1026A00020B1012809D0022811D11AE002220A2102
:1026B0000120FFF7BBFE032205E004220A210120CE
:1026C000FFF7B4FE05220C210120FFF7AFFE00F05A
:1026D0006BFC68B101280DD0022814D003280ED15C
:1026E00013E006220A210120FFF7A0FE0722EAE7F5
:1026F000102200E00D220B210220FFF797FE207828
:1027000028B1082204E00E22F5E70F22F3E70922A0
:1027100002210320FFF78AFE14226946606A01F055
:1027200013FC2078012808D012A20B210320FFF708
:10273000CAFE0A2000F01CFDB1E702239DF800202C
:102740000B210320FFF79EFE0CA20E210320FFF7B2
:10275000BAFE01F035F8024602230B210420FFF7F0
:1027600091FE73220E210420FFF72CFEE1E700000A
:10277000140000202020202020200000636D000095
:10278000234C4FF0FF352946A06A01F079FC00F098
:102790000BFC002306461A461946A06A01F024FBEA
:1027A00036B1012E07D0022E08D0032E0BD108E03F
:1027B00000F090FC07E000F081FC04E000F066FC13
:1027C00001E000F06FFCE07802281DD100F0A2FBD0
:1027D0003038062818D2DFE800F00306090C0F1283
:1027E00000F078FC10E000F069FC0DE000F04EFC19
:1027F0000AE000F057FC07E001F018F804E001F0EF
:1028000009F8002000F0E2FF0A2000F0B1FCBAE76E
:10281000140000200F4CE078B8B9207898B105205A
:1028200000F064FC1E2802D200F03CFC0DE0A0F198
:102830001E01282902D200F029FC06E0462804D314
:1028400000F03CFC01E000F045FC0A2000F090FCA8
:10285000E1E70000140000205FF00A0400F0B0FF80
:10286000C0B20A2806D3B0FBF4F104FB110008B98A
:1028700000F048FB0A2000F07BFCEFE700250F4C3E
:1028800000F0A8FBA070012804D0032809D0042878
:102890000AD00EE0E078411CE170022809D3E5700F
:1028A00007E000F0C3FF04E000F0B4FF002000F0F8
:1028B0008DFF0A2000F05CFCE2E70000140000201D
:1028C00010B5502080F31188BFF34F8FBFF36F8F87
:1028D00001F032FD18B104494FF08050086000202B
:1028E00080F3118810BD000004ED00E030B593B016
:1028F00028216846FDF78DFC14210AA8FDF789FC04
:10290000002501200F9510951195010412958DE871
:10291000230004904FF4E010CDE90810022407943E
:102920006846FEF727FC08B172B6FEE70AA90F2039
:1029300081E831004FF48060CDE90D0502210AA83D
:10294000FEF71CFB08B172B6FEE74FF40040119091
:102950000F940FA8FEF79CFA002801D072B6FEE78C
:1029600013B030BD704700000148FEF71DBF0000E6
:10297000300500200148FEF717BF000010040020BA
:10298000F0B50268194B1A4C1A4D4FF08047984227
:1029900005D0B84203D0A04201D0A84203D122F012
:1029A00070064A683243984205D0B84203D0A0422C
:1029B00001D0A84203D122F44074CA6822434C6972
:1029C00022F08002224302608A68C2620A68826240
:1029D000984201D109690163012141610169C90777
:1029E00003D0016921F001010161F0BD002C01401B
:1029F000000400400008004010B501F01F03012151
:102A0000046A99408C430462016A9A40114301624E
:102A100010BD10B5846842EA032224F47F440A43BF
:102A20002243826010BD826822F070020A4342F0A5
:102A3000070181607047000030B5036A026A22F026
:102A4000010202624268846924F073050C682C4319
:102A500023F002058B682B430A4DA8420BD123F0CB
:102A60000805CB6822F440722B434D6923F0040320
:102A700015438A692A43426084614968416303625D
:102A800030BD0000002C014030B5026A036A23F01B
:102A900010030362436884690D6824F4E64444EA41
:102AA00005248D6822F0200242EA05120B4DA8424F
:102AB0000ED1CD6822F0800242EA05124D6923F45E
:102AC000406343EA85038D6922F0400243EA8503AF
:102AD0004360846149688163026230BD002C01401B
:102AE00030B5036A026A22F4807202624268C469E5
:102AF00023F4007324F073050C682C438D6843EABB
:102B000005230C4DA8420ED1CD6823F4006343EA9F
:102B100005234D6922F4405242EA05128D6923F4DF
:102B2000806342EA05124260C4614968C16303627E
:102B300030BD0000002C014030B5046A026A22F466
:102B4000805202624268C3690D6823F4E64343EA97
:102B500005238D6824F4005444EA0534064DA84248
:102B600004D14D6922F4804242EA85124260C36179
:102B700049680164046230BD002C014010B5036A4D
:102B8000046A24F001040462846924F0F00444EA35
:102B9000021423F00A020A438461026210BD10B5D8
:102BA000036A046A24F010040462846923F0A00319
:102BB00024F4704444EA023243EA01118261016262
:102BC00010BD01680C3151E8002F22F4907241E8E9
:102BD0000023002BF5D10168143151E8002F22F0B9
:102BE000010241E80023002BF5D1016B012909D135
:102BF00001680C3151E8002F22F0100241E8002357
:102C0000002BF5D1202180F842100021016370478C
:102C100070B5044600680169E26821F4405111432F
:102C200001612169A0680843616908432168CA6895
:102C300041F20C639A430243CA6020684169A26969
:102C400021F44071114341611E492068884202D13C
:102C5000FEF75AFA01E0FEF747FA00EBC00101EB7C
:102C60000012606864218000B2FBF0F3B3FBF1F363
:102C70006FF018067343B2FBF0F5B2FBF0F605EB0C
:102C80008305322303EB0515B5FBF1F5B6FBF1F631
:102C900005F0F00505EB0615B2FBF0F6B2FBF0F01F
:102CA000B0FBF1F06FF01802504306EB800003EB2D
:102CB0000010B0FBF1F0216800F00F00284488609C
:102CC00070BD0000003801402DE9F84398461746D2
:102CD0000D460446089E24E0701C22D0FDF7B6FF86
:102CE000A0EB0800B0421AD8CEB12068C1684907ED
:102CF00017D5802D15D0402D13D00168C943090781
:102D00000FD401680025406800902046FFF759FF66
:102D10000820606484F840500120BDE8F883032057
:102D2000FBE72068006835EA000004D00020B842C4
:102D3000D2D00020F1E70120F9E70000F8B5154DE9
:102D400028680068144CC043144F80064FF00006FA
:102D50000ED40A230122A11C2846FEF779FF6078D1
:102D6000802800D366706078A1783954401C607068
:102D700028680068C043C0060BD4084908A000F0CA
:102D80001DF8387820703E606670286801684068D9
:102D90000090F8BDE804002001000020C4000020DD
:102DA000626C7565546F6F74685F726563763A2004
:102DB00025730D0A00000000FEE700000FB4054B6C
:102DC00010B503A9044A029800F027F810BC5DF87A
:102DD00014FB0000252F0008C00000200907090E81
:102DE000002804DB00F1E02080F80014704700F0B8
:102DF0000F0000F1E02080F8141D704702E008C8C1
:102E0000121F08C1002AFAD170477047002001E064
:102E100001C1121F002AFBD170472DE9F84F9946D6
:102E2000924688460546002706E025280AD05146E6
:102E30004A4690476D1C7F1C28780028F5D13846FB
:102E4000BDE8F88F002315F8011F18462E2915D16B
:102E500015F8011F04232A290DD06FF02F022978BD
:102E6000A1F13004092C09D800EB800002EB4000EE
:102E700008446D1CF3E758F8040B6D1C2A78002AEF
:102E8000DDD0632A07D0732A0FD0104651464A4638
:102E900090477F1C2AE018F8042B8DF800200021B1
:102EA0008DF801106E46012103E058F8046B4FF0D5
:102EB000FF315A074FF0000401D409E0641C84423A
:102EC0000BDA8C42FADB325D002AF7D105E0641C94
:102ED0008C42FCDB305D0028F9D1274404E016F871
:102EE000010B51464A469047641EF8D26D1CA3E779
:102EF000AFF30080012251030148FDF7A2BE00009C
:102F0000000C014000224FF400510148FDF799BE2A
:102F1000000C01400249392208780A70704700000D
:102F20000100002038B504468DF800004FF47A7394
:102F3000012269460248FEF7E3FE204638BD000044
:102F4000A004002070B5FEF733FF124D4FF48054FB
:102F500021462846FDF770FE0028F9D000F03CFC21
:102F600021462846FDF768FE0128F9D000F03AFC1A
:102F700009480068406A80B2FDF7DFF94FF0FF3280
:102F8000FDF7C4F9054A064BFDF74EF9054AC2E9BB
:102F9000000170BD00080140C8030020006F8104DB
:102FA000C58FA13F0800002001480078704700004D
:102FB0000000002010B54FF480510448FDF73CFE9E
:102FC00008B1002010BD012010BD0000000C014020
:102FD0007047000070B5294E294C0025307898B113
:102FE00001212046FDF728FE30B302212046FDF7DF
:102FF00023FE08B340212046FDF71EFEE0B18021EC
:103000002046FDF719FEB8B101212046FDF714FE58
:1030100080B102212046FDF70FFE58B14021204625
:10302000FDF70AFE30B180212046FDF705FE08B10C
:1030300001203070284670BD0A20FDF7FBFC0020FF
:10304000307001212046FDF7F7FD88B102212046AE
:10305000FDF7F2FD70B140212046FDF7EDFD58B1BE
:1030600080212046FDF7E8FD0028E3D10425E1E7B3
:103070000125DFE70225DDE70325DBE7100000205F
:10308000000801407047FFF727B8000003493220CD
:103090000968C8630249022008707047580400207C
:1030A00000000020034963200968C8630249032027
:1030B00008707047580400200000002003490A20CF
:1030C0000968C8630249012008707047580400204D
:1030D00000000020034900200968C8630249087005
:1030E00070470000580400200000002010B5FDF7D4
:1030F0003BFA64214843C0F3073010BDFEF77EBEA3
:10310000FDF7B2FDFFF7F0F8FFF7BDFFFDF742FA5C
:10311000FEF746FEFFF7F2FFFFF75AFFFFF7E8FE64
:10312000FFF7B0FFFFF7E2FBFEF704FFFFF722F81F
:10313000FEF7D2FFFFF73AF8FEF79AFFFEF764FFBB
:10314000FEF75CFE08210648FEF784FC00F050FB09
:10315000FFF7CCF9FEF77AFE00F011F8FEE7000069
:103160005804002001460020842900D0C81C704764
:1031700010B500B9012000F02BFC002010BD10B5E7
:1031800000F0C2FC002010BD38B5D0E9011204687F
:103190003AB1C3682BB100200090204600F0ADFD8D
:1031A00038BD2046BDE83840002200F085BD4168AA
:1031B0004FF0010009B100F072BD00F065BD7FB5B0
:1031C0000D4604464169B0F9080081B1A16971B1A9
:1031D000FFF7C8FFD4E905128DE80700D4E9001015
:1031E0002B46226901F06FF8039004B070BDFFF721
:1031F000B9FF03A9CDE90001208A2B4682B2D4E9A8
:10320000001001F033F8012801D00020EDE7039809
:10321000EBE700002DE9F041184C0F460546E66843
:103220002068001D00F00CFB38B9206890F82C10C5
:1032300001208840216981432161681C07D137B191
:103240002168BDE8F0410E48091D00F03DBB206833
:103250003544B5424560216805D2A06BBDE8F04118
:10326000091D00F019BB606B091D00F015FBA06A79
:10327000854200D2A562BDE8F08100005800002020
:10328000540600202DE9F041054600F029FB2E4CA4
:10329000A068401CA06020682C4F10B1606940B34A
:1032A0002DE02560A068012829D1002606EB8600C4
:1032B00007EB800000F0E2FA761C072EF6D32348D5
:1032C0008C3000F0DBFA2148A03000F0D7FA1F481C
:1032D000B43000F0D3FA1D48C83000F0CFFA1B48D4
:1032E000DC3000F0CBFA19488C3060631430A063F6
:1032F00005E02068E96AC06A884200D82560606AF3
:10330000401C6062E96A0120226988401043206104
:1033100001EB810007EB8000291D00F0D5FA00F0D9
:10332000FFFA606900280CD02068E96AC06A884208
:1033300007D207494FF080500860BFF34F8FBFF3AB
:103340006F8FBDE8F0810000580000207805002054
:1033500004ED00E030B4026C0B46002A0BD0C168CB
:103360001144C1608468A14201D30168C16030BCCE
:103370001846FCF735BF30BC70472DE9F041856B2E
:10338000174604460026026C82B1C7B1E068FCF71C
:1033900027FFE168206C091AE1602268914202D29D
:1033A000A168081AE060022F16D017E02068A8B9BB
:1033B000A06801F027F806460020A0600EE06068D3
:1033C000FCF70EFF216C606808446060A1688842C9
:1033D00004D32068606001E005B16D1E6D1CA5631B
:1033E0003046BDE8F08110B5044690F8510058B160
:1033F00001280CD002280FD0502080F31188BFF391
:103400004F8FBFF36F8FFEE7206B00F09DFA2046D1
:10341000BDE8104000F098BA10BD000010484FF40D
:10342000BE51420706D0C01D0D4920F00700411AC9
:10343000C1F5BE510B4A00230144C2E9000308391B
:10344000183A21F0070111604B600B600B1AC0E9BC
:10345000001393604FF000405360506170470000CC
:1034600068060020AC000020144E154CA6F1C807D9
:103470004FF08058DFF84C9012E000BF00F030FAB7
:10348000F068C568281D00F0DBF9A068401EA06048
:103490006068401E606000F043FA2846FFF7A3FF13
:1034A00060680028EAD138680128F9D9C9F8008095
:1034B000BFF34F8FBFF36F8FF2E70000400600208D
:1034C0005800002004ED00E0002807D000218160B2
:1034D00001600B460A46C16000F086BC7047034697
:1034E000009829B10260C0E90F31012100F038BC19
:1034F0000060F8E72DE9F0479A46DDE90984814646
:103500006FF00303206B03EB82021044089E20F04F
:103510000707780707D0502080F31188BFF34F8F3B
:10352000BFF36F8FFEE7002561B1002023180A5C0E
:1035300083F834200A5C12B1401C1028F6D384F8BA
:10354000435001E084F83450072E00D30626E6628B
:10355000C4E91165201D00F09CF904F1180000F089
:1035600098F92461C6F107006462A061E56484F8FB
:10357000505052464946384600F010F92060B8F1E4
:10358000000F01D0C8F80040BDE8F08730B5114900
:1035900000E011460A688242FBD34B685C18844203
:1035A00003D1406818444860084643681C18944298
:1035B00009D1084C183C2468A24209D052681A4428
:1035C00042600A6812680260814200D0086030BD23
:1035D0000460F9E7AC00002010B5044600F080F963
:1035E000A06B28B15FF0000400F09AF9204610BDEE
:1035F0000124F9E70648416B096829B1416BC968A4
:10360000C9684968816270474FF0FF31FAE70000EE
:103610005800002008484068401C4FF0500080F3DC
:10362000118804D0BFF34F8FBFF36F8FFEE7BFF356
:103630004F8FBFF36F8FFEE7B40000202DE9F041FC
:10364000044600F04DF994F9455004F1240609E0D0
:10365000606A48B1304600F067FF08B100F0E6F953
:103660006D1E6DB2002DF3DC4FF0FF3684F845601F
:1036700000F056F900F034F994F9445004F11007C1
:1036800009E0206948B1384600F04EFF08B100F06B
:10369000CDF96D1E6DB2002DF3DC84F84460BDE8F9
:1036A000F04100F03DB900002DE9F041054600274A
:1036B00000F060FA324E306808B9FFF7AFFE70696B
:1036C00005424ED1C5B3083568070ED005F0070096
:1036D000C0F108000544680707D0502080F3118826
:1036E000BFF34F8FBFF36F8FFEE72DB37068854236
:1036F00037D82348183001460C6801E020460C46B4
:103700006168A94202D221680029F7D131688C4250
:1037100027D007682168016060680837411B1029BD
:103720000FD96019420708D0502080F31188BFF3E9
:103730004F8FBFF36F8FFEE713E041606560FFF7C7
:1037400025FF61687068401A7060B268904200D2CC
:10375000B060706901430020C4E90001F068401CBA
:10376000F06000F01BFF780707D0502080F311882D
:10377000BFF34F8FBFF36F8FFEE73846BDE8F08190
:10378000940000200449086818B10868826C521C33
:1037900082640868704700005800002010B5031FBD
:1037A0004FF080741C601B1F21F001011960191F6C
:1037B000024B0B60143940380A6010BD1536000802
:1037C00001484068704700004000002001494860FF
:1037D00070470000400000200148FDF7F7BE0000E0
:1037E000C80300200148FDF745BF0000C8030020C2
:1037F000064910B509686FF0010008610348FDF73C
:103800000DFF03490120087010BD000010040020C6
:103810004000002010B50348FDF73FFF024900209B
:10382000087010BD100400204000002003480078FC
:1038300008B1FFF7EFBFFFF7DBBF0000400000203B
:10384000D0E9013201699A60D0E901235A604A68DF
:10385000824201D182684A60002202610868401EEB
:103860000860086870470000034B036003F15400D0
:1038700008608020106070474401002000F10801BA
:103880004FF0FF32C0E90112C16001610021016007
:10389000704700210161704730B50B685A1C02D097
:1038A00000F1080202E0026904E02246546825683B
:1038B0009D42FAD953684B6099608A6051600861F3
:1038C0000168491C016030BD42684A6093688B60A2
:1038D00093685960916008610168491C01607047F4
:1038E000502080F31188BFF34F8FBFF36F8F0A49C9
:1038F0004868401C486001280CD10848006810F056
:10390000FF0F07D0502080F31188BFF34F8FBFF314
:103910006F8FFEE770470000B400002004ED00E068
:103920000849486828B1401E486001D180F31188D9
:103930007047502080F31188BFF34F8FBFF36F8F14
:10394000FEE70000B400002070B500282AD0164D14
:10395000A0F1080460686969084207D1502080F32B
:103960001188BFF34F8FBFF36F8FFEE722683AB124
:10397000502080F31188BFF34F8FBFF36F8FFEE7A6
:103980008843606000F0F6F8606869680844686021
:103990002046FFF7FBFD2869401C2861BDE8704008
:1039A00000F0FCBD70BD0000940000204FF0E0204E
:1039B00000210161816105494FF47A720968B1FB08
:1039C000F2F1491E41610721016170475400002056
:1039D00010B5020014D00F48006B38B1502080F3AE
:1039E0001188BFF34F8FBFF36F8FFEE700F0C2F86F
:1039F00000211046FFF70EFC00F0D0FD002807D193
:103A000005494FF080500860BFF34F8FBFF36F8FB1
:103A100010BD00005800002004ED00E002490A6AD1
:103A20000260C968416070475800002001490120C8
:103A3000C86170475800002010B50C4650B10949C4
:103A400009681831FFF728FF2046BDE81040012122
:103A5000FFF7E0BB502080F31188BFF34F8FBFF317
:103A60006F8FFEE75800002070B5040047D0A26CAD
:103A7000A2B1606C884200D30146E06A88423ED021
:103A8000012A3CD11E4D2A6894420FD1502080F368
:103A90001188BFF34F8FBFF36F8FFEE7502080F385
:103AA0001188BFF34F8FBFF36F8FFEE7E162A2690A
:103AB000002A02DBC1F10701A161124E00EB800078
:103AC000616906EB8000814219D1201DFFF7B8FE25
:103AD000012130B994F82C002A6901FA00F08243E0
:103AE0002A61E06A2A6981401143296100EB800064
:103AF00006EB8000211DBDE87040FFF7E5BE70BDFC
:103B0000580000207805002010B586B000240394EA
:103B100005AA04A903A80494FFF7A6FEDDE90301A2
:103B20000094CDE9011000230EA11048059A00F081
:103B3000CAFB0F490028C86211D0502080F31188B9
:103B4000BFF34F8FBFF36F8F4FF0FF3088620120BC
:103B50004861CC6006B0BDE8104000F041B806B046
:103B600010BD000049444C450000000069340008C5
:103B7000580000200248016B491C01637047000097
:103B8000580000201448016B11B10121C161704738
:103B90000021C1610169B1FA81F1C1F11F0101EB9D
:103BA00081020E4951F822306BB101EB820101F123
:103BB00008034A6852684A609A4201D152684A60D2
:103BC000D16801607047502080F31188BFF34F8F98
:103BD000BFF36F8FFEE7000058000020780500203B
:103BE0001CB5264908780190FF20087008788DF8E8
:103BF00000009DF800009DF8002000F0F0009042C9
:103C000007D0502080F31188BFF34F8FBFF36F8F21
:103C1000FEE79DF800001A4C00F0500020700720CD
:103C2000A06005E09DF8002052008DF80020401EA5
:103C30009DF800201206F5D4A060032807D050207C
:103C400080F31188BFF34F8FBFF36F8FFEE74FF400
:103C50004070A060019808700A48016841F4700142
:103C60000160016841F070410160FFF79FFE002094
:103C70006060FCF759FA00201CBD000000E400E081
:103C8000B400002020ED00E010B502460021012024
:103C900000F012F80446FFF717FC204610BD38B5B7
:103CA0000B46002200901146012000F026F8044641
:103CB000FFF70AFC204638BDF8B517460E4605004A
:103CC00013D005FB06F04830FFF7EEFC04000AD0E5
:103CD000002084F8460004F148023B46314628465D
:103CE0000094FFF7FCFB2046F8BD502080F31188BC
:103CF000BFF34F8FBFF36F8FFEE738B5049D18B148
:103D000053B1CAB181B120E0502080F31188BFF3D4
:103D10004F8FBFF36F8FFEE7502080F31188BFF302
:103D20004F8FBFF36F8FFEE7502080F31188BFF3F2
:103D30004F8FBFF36F8FFEE739B1502080F31188AA
:103D4000BFF34F8FBFF36F8FFEE748241C4601235C
:103D500084F846302B460094FFF7C1FB204638BD5F
:103D600070B50D46040025D0FFF7BAFDD4E90F2049
:103D7000216802FB0011A1600021A163216861603C
:103D80000A46D4E90F01401E00FB0121E1602146F3
:103D90004FF0FF3001F8440F487004F110008DB16E
:103DA000FFF76CFD04F12400FFF768FDFFF7B8FD95
:103DB000012070BD502080F31188BFF34F8FBFF3F7
:103DC0006F8FFEE721690029F0D000F0ADFB0028DD
:103DD000ECD004494FF080500860BFF34F8FBFF321
:103DE0006F8FE3E704ED00E02DE9FF4782B01D4649
:103DF0008A464FF00008040003D0BAF1000F08D043
:103E000011E0502080F31188BFF34F8FBFF36F8F05
:103E1000FEE7206C38B1502080F31188BFF34F8F3C
:103E2000BFF36F8FFEE7022D0AD1E06B012807D0A8
:103E3000502080F31188BFF34F8FBFF36F8FFEE7E1
:103E400000F06CFA3F4F4FF000094FF0805648B930
:103E5000049838B1502080F31188BFF34F8FBFF31F
:103E60006F8FFEE7FFF73CFDA06BE16B884207D345
:103E7000022D05D00498D0B1B8F1000F1AD01EE081
:103E80002A4651462046FFF778FA616A19B104F1D3
:103E9000240000F049FB20B13E60BFF34F8FBFF319
:103EA0006F8FFFF73DFD012006B0BDE8F087FFF7FB
:103EB00037FD22E06846FFF7B1FD4FF00108FFF73C
:103EC0002FFDFFF757FEFFF70BFD94F94400401C50
:103ED00001D184F8449094F94500401C01D184F844
:103EE0004590FFF71DFD04A9684600F085F930B143
:103EF0002046FFF7A3FB00F051FB0020D4E7FFF7BB
:103F0000EFFCA06BE16B884213D1FFF709FD04F1D0
:103F100010000499FFF790FD2046FFF78FFB00F09B
:103F20003DFB00289ED13E60BFF34F8FBFF36F8FE4
:103F300098E7FFF7F5FC2046FFF780FB00F02EFB2B
:103F400090E7000004ED00E02DE9F747002683B07C
:103F50008A46040003D0BAF1000F08D011E05020C7
:103F600080F31188BFF34F8FBFF36F8FFEE7206C94
:103F700038B1502080F31188BFF34F8FBFF36F8F9C
:103F8000FEE700F0CBF9DFF8F4804FF000094FF0C6
:103F9000805748B9059838B1502080F31188BFF395
:103FA0004F8FBFF36F8FFEE7FFF79AFCA56BC5B18C
:103FB00051462046FFF7CEF96D1EA563206950B12A
:103FC00004F1100000F0B0FA28B1C8F80070BFF397
:103FD0004F8FBFF36F8FFFF7A3FC012006B0BDE842
:103FE000F087059808B11EB106E0FFF799FC27E0BD
:103FF0006846FFF713FD0126FFF792FCFFF7BAFDB5
:10400000FFF76EFC94F94400401C01D184F8449001
:1040100094F94500401C01D184F84590FFF780FCDD
:1040200005A9684600F0E8F8002820460AD0FFF706
:1040300005FB00F0B3FA2046FFF7CEFA0028B3D014
:104040000020CBE7FFF7C8FA90B104F124000599EE
:10405000FFF7F2FC2046FFF7F1FA00F09FFA002884
:10406000A2D1C8F80070BFF34F8FBFF36F8F9BE7EB
:104070002046FFF7E3FA00F091FA95E704ED00E03F
:104080002DE9F343002683B00400354609D0206CA7
:1040900078B1502080F31188BFF34F8FBFF36F8F3B
:1040A000FEE7502080F31188BFF34F8FBFF36F8F6F
:1040B000FEE700F033F9DFF83C814FF000094FF0E4
:1040C000805748B9049838B1502080F31188BFF365
:1040D0004F8FBFF36F8FFEE7FFF702FCA06BC8B1F5
:1040E000401EA063206810B9FFF74CFBA060206958
:1040F00050B104F1100000F017FA28B1C8F80070B0
:10410000BFF34F8FBFF36F8FFFF70AFC012005B09D
:10411000BDE8F083049808B166B10FE03DB15020CE
:1041200080F31188BFF34F8FBFF36F8FFEE7FFF768
:10413000F7FB5DE06846FFF771FC0126FFF7F0FB37
:10414000FFF718FDFFF7CCFB94F94400401C01D1A8
:1041500084F8449094F94500401C01D184F84590BE
:10416000FFF7DEFB04A9684600F046F80028204669
:1041700012D0FFF763FA00F011FA2046FFF72CFA8D
:104180000028A9D09DB3FFF7ABFB606A50B3206B4A
:104190000068C0F1070126E0FFF71EFAE0B12068D1
:1041A00038B9FFF79DFBA06800F078F90546FFF7E6
:1041B000B7FB04F124000499FFF73EFC2046FFF70B
:1041C0003DFA00F0EBF9002886D1C8F80070BFF383
:1041D0004F8FBFF36F8F7FE72046FFF72FFA00F076
:1041E000DDF979E70021A068FFF73EFC9FE7FFE7D4
:1041F00000208CE704ED00E02DE9F0410C460500BD
:1042000011D0C4B1FFF76CFB174BDA686E682068F9
:10421000911B471C17D02F681B6A9F4219D09642EA
:1042200017D8012410E0502080F31188BFF34F8F7E
:10423000BFF36F8FFEE7502080F31188BFF34F8FDD
:10424000BFF36F8FFEE70024FFF76AFB2046BDE84F
:10425000F081884205D9401A20602846FFF7DEFB2E
:10426000F1E700202060DCE7580000202DE9FF5F27
:104270008346DDE90E87994616468A469000FFF789
:1042800013FA05001CD05420FFF70EFA040014D0D6
:104290000020256384F85100CDE90240CDE9008774
:1042A0004B46324651465846FFF724F92046FEF762
:1042B000E9FF012004B0BDE8F09F2846FFF744FB6A
:1042C0004FF0FF30F6E7F0B585B0DDE90B640A9DED
:1042D000A6B1DCB1542700972663022684F851600A
:1042E000002604AFCDE90246CDE90057FFF702F9F9
:1042F0002046FEF7C7FF049805B0F0BD502080F3BC
:104300001188BFF34F8FBFF36F8FFEE7502080F30C
:104310001188BFF34F8FBFF36F8FFEE705484169E8
:1043200019B1006B18B100207047012070470220BE
:1043300070470000580000202DE9F0412F4C002666
:10434000206B28B1A069401CA0613046BDE8F08117
:10435000E5686D1CE56013D1606B006838B15020D2
:1043600080F31188BFF34F8FBFF36F8FFEE7606B51
:10437000A16B6163A063206A401C2062FFF73AF9D9
:10438000A06ADFF87C80854209D3606B0068A0B129
:10439000606BC068C7687868854211D2A0622068E7
:1043A000C06A00EB800158F82100012800D90126DD
:1043B000E0690028C9D00126C7E74FF0FF30EDE7DC
:1043C000381DFFF73DFAB86A18B107F11800FFF77A
:1043D00037FAF96A0120226988401043206101EB15
:1043E000810108EB8100391DFFF76EFAF86A216838
:1043F000C96A8842C9D30126C7E7000058000020D7
:104400007805002070B504004FF0000140D0214D28
:104410002868844207D0502080F31188BFF34F8F63
:10442000BFF36F8FFEE7A06C38B1401EA064636CD1
:10443000E26A9A422CD040B12AE0502080F31188E1
:10444000BFF34F8FBFF36F8FFEE7201DFFF7F8F923
:10445000114A012150B9E06A00EB800352F8233081
:1044600023B92B6901FA00F083432B61606CE06291
:10447000C0F10700A061E06A2B69814019432961FE
:1044800000EB800002EB8000211DFFF71DFA0121E7
:10449000084670BD580000207805002070B5040063
:1044A0004FF0000034D01E4DE16A2A68D26A914272
:1044B0002FD2A069002804DB2868C06AC0F1070079
:1044C000A061184E01EB8101606906EB8101884211
:1044D0001AD1201DFFF7B4F9012130B994F82C004E
:1044E0002A6901FA00F082432A612868C06AE06202
:1044F0002A6981401143296100EB800006EB8000AE
:10450000211DFFF7E1F902E02868C06AE06201209E
:1045100070BD616C2A68D26A9142F8D370BD000008
:1045200058000020780500202DE9F041C068C468DB
:10453000ACB104F118000746FFF782F9154D286B5E
:104540000126A0B139461448FFF7BEF9E06A296890
:10455000C96A88421CD90120EE61BDE8F081502073
:1045600080F31188BFF34F8FBFF36F8FFEE7201DDD
:10457000FFF766F9E16A2A6906FA01F0104328613B
:1045800001EB81000449B43901EB8000211DDBE718
:104590000020E2E7580000202C0600202DE9F0471B
:1045A0002C4D00242746286B38B1FFF799F9286B6A
:1045B000401E2863286B40B146E0502080F31188EC
:1045C000BFF34F8FBFF36F8FFEE7A968224E012024
:1045D000D1B3A6F1B40980463068E8B1F068C46888
:1045E00004F11800FFF72CF9201DFFF729F9E06A04
:1045F0002A6908FA00F11143296100EB800109EBF7
:104600008100211DFFF760F9E06A2968C96A8842C4
:10461000E2D3C5F81C80DFE70CB1FEF7EBFFAC6915
:1046200044B14646FFF788FE00B1EE61641EF9D141
:104630000020A861E86938B10849012738070860F7
:10464000BFF34F8FBFF36F8FFFF76AF93846BDE8AE
:10465000F0870000580000202C06002004ED00E048
:104660001010D0FF9014E4AFA4A4A4AFE4040000A1
:10467000040300FF00894B2A1A0E1A2A4B88800077
:10468000101090909090901010FF101011161000C4
:10469000002060203F10101000030C102040F80094
:1046A000109453321E325210007E4242427E00006D
:1046B000000000FF49494949494949FF00000000FD
:1046C00008CC4A49484ACC18007F88888482E00098
:1046D00000FF121252927F00007E88888482E000E0
:1046E000101010FF9020988888E98E8888A898007C
:1046F0000242817F000080844B2810284780000000
:104700004030EF242480E49C105454FF547C10006B
:1047100001017F21512618274445455F4545440046
:10472000404042CC002022E22222E222222000004D
:104730000080403F40A0988780809FA0A0BC800060
:104740002424A4FE2322003E22222222223E000014
:10475000080601FF0106404949497F49494941008E
:1047600004040484E43C2724242424E404040400F2
:1047700004020100FF0909090949897F00000000BE
:104780000040424242C27E42C24242424040000099
:10479000804020100C0300003F404040407000006B
:1047A000000000000000C03FC0000000000000004A
:1047B000804020100C03000000030C1020408000FB
:1047C00000040474545455565454547404040000A2
:1047D000848341211D05050505057D818185E30053
:1047E0000000FC242424FC252624FC24242404008A
:1047F00040308F80844C55252525554C8080800085
:10480000008060F80700FC848484FE82838280003C
:10481000010000FF0000FF402000418E3040F80002
:104820000000F010101010FF10101010F000000029
:1048300000000F04040404FF040404040F0000003B
:1048400004040404F49495969494F4040404040079
:1048500000FE02027A4A4A4A4A4A7A0282FE00006E
:1048600000001011161010F01010141310000000AA
:104870008181414121110D030D11214141818100AF
:10488000404042CC0040404040FF4040404040005B
:104890000000007F2010000000FF0000000000006A
:1048A00000FC848484FC001010101010FF10100015
:1048B000003F1010103F0000010640807F00000004
:1048C00000000000000000000000000000000000E8
:1048D000000000F80000000000000033300000007D
:1048E00000100C06100C0600000000000000000084
:1048F00040C07840C0784000043F04043F040400F6
:10490000007088FC08300000001820FF211E000005
:10491000F008F000E018000000211C031E211E001A
:1049200000F00888700000001E21232419272110A0
:1049300010160E0000000000000000000000000043
:10494000000000E0180402000000000718204000EA
:1049500000020418E00000000040201807000000DA
:10496000404080F0804040000202010F010202003E
:10497000000000F0000000000101011F0101010022
:10498000000000000000000080B070000000000087
:104990000000000000000000000101010101010110
:1049A00000000000000000000030300000000000A7
:1049B000000000008060180400601806010000007C
:1049C00000E010080810E000000F102020100F0079
:1049D000001010F8000000000020203F2020000000
:1049E0000070080808887000003028242221300058
:1049F00000300888884830000018202020110E0060
:104A00000000C02010F8000000070424243F240008
:104A100000F80888880808000019212020110E00DD
:104A200000E0108888180000000F112020110E00EF
:104A300000380808C83808000000003F00000000E7
:104A40000070880808887000001C222121221C00A8
:104A500000E010080810E0000000312222110F00D1
:104A6000000000C0C0000000000000303000000066
:104A700000000080000000000000806000000000D6
:104A800000008040201008000001020408102000EF
:104A9000404040404040400004040404040404003A
:104AA00000081020408000000020100804020100CF
:104AB000007048080808F0000000003036010000CF
:104AC000C030C828E810E0000718272423140B0082
:104AD0000000C038E0000000203C230202273820FC
:104AE00008F8888888700000203F202020110E00E0
:104AF000C0300808080838000718202020100800D7
:104B000008F808080810E000203F202020100F00BF
:104B100008F88888E8081000203F2020232018008B
:104B200008F88888E8081000203F200003000000F3
:104B3000C03008080838000007182020221E020094
:104B400008F808000008F808203F210101213F2053
:104B5000000808F8080800000020203F202000007E
:104B600000000808F8080800C08080807F0000006E
:104B700008F888C028180800203F200126382000A7
:104B800008F8080000000000203F2020202030000E
:104B900008F8F800F8F80800203F003F003F200028
:104BA00008F830C00008F808203F200007183F0030
:104BB000E01008080810E0000F10202020100F005F
:104BC00008F808080808F000203F21010101000052
:104BD000E01008080810E0000F18242438504F0097
:104BE00008F8888888887000203F2000030C302057
:104BF00000708808080838000038202121221C0095
:104C0000180808F8080818000000203F20000000DD
:104C100008F808000008F808001F202020201F00C6
:104C20000878880000C83808000007380E01000026
:104C3000F80800F80008F800033C0700073C0300F0
:104C4000081868808068180820302C03032C302056
:104C50000838C800C83808000000203F20000000C5
:104C600010080808C838080020382621202018001D
:104C7000000000FE020202000000007F40404000F1
:104C8000000C30C000000000000000010638C00029
:104C900000020202FE000000004040407F000000D1
:104CA00000000402020204000000000000000000F6
:104CB00000000000000000008080808080808080F4
:104CC00000020204000000000000000000000000DC
:104CD00000008080808000000019242222223F20D2
:104CE00008F8008080000000003F112020110E0015
:104CF0000000008080800000000E112020201100A4
:104D0000000000808088F800000E112020103F2055
:104D10000000808080800000001F222222221300D9
:104D2000008080F0888888180020203F2020000024
:104D30000000808080808000006B949494936000D9
:104D400008F8008080800000203F210000203F20E4
:104D500000809898000000000020203F20200000E4
:104D6000000000809898000000C08080807F0000D4
:104D700008F8000080808000203F24022D302000B1
:104D8000000808F8000000000020203F202000005C
:104D90008080808080808000203F20003F20003F76
:104DA0008080008080800000203F210000203F2084
:104DB0000000808080800000001F202020201F0035
:104DC000808000808000000080FFA12020110E0064
:104DD0000000008080808000000E112020A0FF8055
:104DE000808080008080800020203F212000010002
:104DF0000000808080808000003324242424190057
:104E0000008080E0808000000000001F2020000063
:104E10008080000000808000001F202020103F20A4
:104E2000808080000080808000010E300806010034
:104E300080800080008080800F300C030C300F00D9
:104E400000808000808080000020312E0E31200004
:104E5000808080000080808080818E701806010034
:104E600000808080808080000021302C2221300052
:104E700000000000807C020200000000003F404073
:104E800000000000FF00000000000000FF00000024
:104E90000002027C800000000040403F0000000053
:104EA00000060101020204040000000000000000EE
:104EB00010000000020000000000000000000000E0
:104EC0000450000801260008020000000000000055
:104ED00080000000000000000000000014500008E6
:104EE0007D28000801000000000000008000000094
:104EF0000000000000000000F04F00081528000826
:104F00000000000000000000800000000000000021
:104F100000000000E84F0008A12500080000000084
:104F20000000000080000000000000000000000001
:104F3000DC4F00088127000800000000000000008E
:104F40008000000000000000000000001C5000086D
:104F500059280008FFFF000000000000800000004A
:104F60000000000000000000245000089526000802
:104F7000FEFF0000000000008000000000000000B4
:104F800000000000FC4F00083D260008FFFF000065
:104F90000000000080000000000000000000000091
:104FA000010202030405060708090A0B0C0D0E0F87
:104FB0001010010202030405060708090A0B0C0D74
:104FC0000E0F10100000000000000000010203049A
:104FD00006070809000000000102030452656D6F16
:104FE00074654D6F6465000042746E4D6F646500BA
:104FF000536D6172744D6F64650000004D6561739F
:1050000075726500496E6672617265645F436865BA
:10501000636B00006B65795363616E0054696D4387
:105020006E7400004F6C656453686F770000000079
:105030005050000800000020C4000000FC2D0008B3
:1050400014510008C4000020642100000C2E000848
:105050000000000000000000000000000000000050
:10506000010000000000000000000000000000003F
:105070000000000000000000000000000000000030
:105080000000000000000000000000000000000020
:1050900000000000000000000100000010000000FF
:1050A0000000000000127A00000000000000000074
:1050B00000000000000000000000000000000000F0
:1050C00000000000000000000000000000000000E0
:1050D00000000000000000000000000000000000D0
:1050E00000000000000000000000000000000000C0
:1050F00000000000000000000000000000000000B0
:105100000000000000000000AAAAAAAA00000000F7
:04511000000000009B
:04000005080000ED02
:00000001FF
